{
  "_format": "hh-sol-artifact-1",
  "contractName": "Fractionalize",
  "sourceName": "src/extensions/Fractionalize.sol",
  "abi": [
    {
      "inputs": [],
      "stateMutability": "nonpayable",
      "type": "constructor"
    },
    {
      "anonymous": false,
      "inputs": [
        {
          "indexed": true,
          "internalType": "uint256",
          "name": "fractionId",
          "type": "uint256"
        },
        {
          "indexed": true,
          "internalType": "address",
          "name": "approver",
          "type": "address"
        },
        {
          "indexed": false,
          "internalType": "bool",
          "name": "approved",
          "type": "bool"
        }
      ],
      "name": "AdminApprovalSet",
      "type": "event"
    },
    {
      "anonymous": false,
      "inputs": [
        {
          "indexed": false,
          "internalType": "address",
          "name": "previousAdmin",
          "type": "address"
        },
        {
          "indexed": false,
          "internalType": "address",
          "name": "newAdmin",
          "type": "address"
        }
      ],
      "name": "AdminChanged",
      "type": "event"
    },
    {
      "anonymous": false,
      "inputs": [
        {
          "indexed": true,
          "internalType": "address",
          "name": "account",
          "type": "address"
        },
        {
          "indexed": true,
          "internalType": "address",
          "name": "operator",
          "type": "address"
        },
        {
          "indexed": false,
          "internalType": "bool",
          "name": "approved",
          "type": "bool"
        }
      ],
      "name": "ApprovalForAll",
      "type": "event"
    },
    {
      "anonymous": false,
      "inputs": [
        {
          "indexed": true,
          "internalType": "uint256",
          "name": "fractionId",
          "type": "uint256"
        },
        {
          "indexed": false,
          "internalType": "uint256",
          "name": "originalTokenId",
          "type": "uint256"
        }
      ],
      "name": "AssetLocked",
      "type": "event"
    },
    {
      "anonymous": false,
      "inputs": [
        {
          "indexed": true,
          "internalType": "uint256",
          "name": "fractionId",
          "type": "uint256"
        },
        {
          "indexed": false,
          "internalType": "uint256",
          "name": "originalTokenId",
          "type": "uint256"
        },
        {
          "indexed": false,
          "internalType": "address",
          "name": "to",
          "type": "address"
        }
      ],
      "name": "AssetUnlocked",
      "type": "event"
    },
    {
      "anonymous": false,
      "inputs": [
        {
          "indexed": true,
          "internalType": "address",
          "name": "beacon",
          "type": "address"
        }
      ],
      "name": "BeaconUpgraded",
      "type": "event"
    },
    {
      "anonymous": false,
      "inputs": [
        {
          "indexed": true,
          "internalType": "uint256",
          "name": "fractionId",
          "type": "uint256"
        },
        {
          "indexed": false,
          "internalType": "enum Fractionalize.FractionAssetType",
          "name": "assetType",
          "type": "uint8"
        },
        {
          "indexed": false,
          "internalType": "uint256",
          "name": "originalTokenId",
          "type": "uint256"
        }
      ],
      "name": "FractionCreated",
      "type": "event"
    },
    {
      "anonymous": false,
      "inputs": [
        {
          "indexed": false,
          "internalType": "uint8",
          "name": "version",
          "type": "uint8"
        }
      ],
      "name": "Initialized",
      "type": "event"
    },
    {
      "anonymous": false,
      "inputs": [
        {
          "indexed": false,
          "internalType": "address",
          "name": "account",
          "type": "address"
        }
      ],
      "name": "Paused",
      "type": "event"
    },
    {
      "anonymous": false,
      "inputs": [
        {
          "indexed": true,
          "internalType": "bytes32",
          "name": "role",
          "type": "bytes32"
        },
        {
          "indexed": true,
          "internalType": "bytes32",
          "name": "previousAdminRole",
          "type": "bytes32"
        },
        {
          "indexed": true,
          "internalType": "bytes32",
          "name": "newAdminRole",
          "type": "bytes32"
        }
      ],
      "name": "RoleAdminChanged",
      "type": "event"
    },
    {
      "anonymous": false,
      "inputs": [
        {
          "indexed": true,
          "internalType": "bytes32",
          "name": "role",
          "type": "bytes32"
        },
        {
          "indexed": true,
          "internalType": "address",
          "name": "account",
          "type": "address"
        },
        {
          "indexed": true,
          "internalType": "address",
          "name": "sender",
          "type": "address"
        }
      ],
      "name": "RoleGranted",
      "type": "event"
    },
    {
      "anonymous": false,
      "inputs": [
        {
          "indexed": true,
          "internalType": "bytes32",
          "name": "role",
          "type": "bytes32"
        },
        {
          "indexed": true,
          "internalType": "address",
          "name": "account",
          "type": "address"
        },
        {
          "indexed": true,
          "internalType": "address",
          "name": "sender",
          "type": "address"
        }
      ],
      "name": "RoleRevoked",
      "type": "event"
    },
    {
      "anonymous": false,
      "inputs": [
        {
          "indexed": true,
          "internalType": "uint256",
          "name": "fractionId",
          "type": "uint256"
        },
        {
          "indexed": true,
          "internalType": "uint256",
          "name": "shareId",
          "type": "uint256"
        }
      ],
      "name": "ShareBurned",
      "type": "event"
    },
    {
      "anonymous": false,
      "inputs": [
        {
          "indexed": true,
          "internalType": "uint256",
          "name": "fractionId",
          "type": "uint256"
        },
        {
          "indexed": true,
          "internalType": "uint256",
          "name": "shareId",
          "type": "uint256"
        },
        {
          "indexed": false,
          "internalType": "address",
          "name": "to",
          "type": "address"
        }
      ],
      "name": "ShareMinted",
      "type": "event"
    },
    {
      "anonymous": false,
      "inputs": [
        {
          "indexed": true,
          "internalType": "uint256",
          "name": "fractionId",
          "type": "uint256"
        },
        {
          "indexed": true,
          "internalType": "address",
          "name": "approver",
          "type": "address"
        },
        {
          "indexed": false,
          "internalType": "bool",
          "name": "approved",
          "type": "bool"
        }
      ],
      "name": "TransferApprovalSet",
      "type": "event"
    },
    {
      "anonymous": false,
      "inputs": [
        {
          "indexed": true,
          "internalType": "address",
          "name": "operator",
          "type": "address"
        },
        {
          "indexed": true,
          "internalType": "address",
          "name": "from",
          "type": "address"
        },
        {
          "indexed": true,
          "internalType": "address",
          "name": "to",
          "type": "address"
        },
        {
          "indexed": false,
          "internalType": "uint256[]",
          "name": "ids",
          "type": "uint256[]"
        },
        {
          "indexed": false,
          "internalType": "uint256[]",
          "name": "values",
          "type": "uint256[]"
        }
      ],
      "name": "TransferBatch",
      "type": "event"
    },
    {
      "anonymous": false,
      "inputs": [
        {
          "indexed": true,
          "internalType": "address",
          "name": "operator",
          "type": "address"
        },
        {
          "indexed": true,
          "internalType": "address",
          "name": "from",
          "type": "address"
        },
        {
          "indexed": true,
          "internalType": "address",
          "name": "to",
          "type": "address"
        },
        {
          "indexed": false,
          "internalType": "uint256",
          "name": "id",
          "type": "uint256"
        },
        {
          "indexed": false,
          "internalType": "uint256",
          "name": "value",
          "type": "uint256"
        }
      ],
      "name": "TransferSingle",
      "type": "event"
    },
    {
      "anonymous": false,
      "inputs": [
        {
          "indexed": false,
          "internalType": "string",
          "name": "value",
          "type": "string"
        },
        {
          "indexed": true,
          "internalType": "uint256",
          "name": "id",
          "type": "uint256"
        }
      ],
      "name": "URI",
      "type": "event"
    },
    {
      "anonymous": false,
      "inputs": [
        {
          "indexed": false,
          "internalType": "address",
          "name": "account",
          "type": "address"
        }
      ],
      "name": "Unpaused",
      "type": "event"
    },
    {
      "anonymous": false,
      "inputs": [
        {
          "indexed": true,
          "internalType": "address",
          "name": "implementation",
          "type": "address"
        }
      ],
      "name": "Upgraded",
      "type": "event"
    },
    {
      "inputs": [],
      "name": "ADMIN_ROLE",
      "outputs": [
        {
          "internalType": "bytes32",
          "name": "",
          "type": "bytes32"
        }
      ],
      "stateMutability": "view",
      "type": "function"
    },
    {
      "inputs": [],
      "name": "DEFAULT_ADMIN_ROLE",
      "outputs": [
        {
          "internalType": "bytes32",
          "name": "",
          "type": "bytes32"
        }
      ],
      "stateMutability": "view",
      "type": "function"
    },
    {
      "inputs": [
        {
          "internalType": "address",
          "name": "account",
          "type": "address"
        },
        {
          "internalType": "uint256",
          "name": "id",
          "type": "uint256"
        }
      ],
      "name": "balanceOf",
      "outputs": [
        {
          "internalType": "uint256",
          "name": "",
          "type": "uint256"
        }
      ],
      "stateMutability": "view",
      "type": "function"
    },
    {
      "inputs": [
        {
          "internalType": "address[]",
          "name": "accounts",
          "type": "address[]"
        },
        {
          "internalType": "uint256[]",
          "name": "ids",
          "type": "uint256[]"
        }
      ],
      "name": "balanceOfBatch",
      "outputs": [
        {
          "internalType": "uint256[]",
          "name": "",
          "type": "uint256[]"
        }
      ],
      "stateMutability": "view",
      "type": "function"
    },
    {
      "inputs": [
        {
          "components": [
            {
              "internalType": "uint256",
              "name": "fractionId",
              "type": "uint256"
            },
            {
              "internalType": "uint256[]",
              "name": "shareIds",
              "type": "uint256[]"
            },
            {
              "internalType": "address[]",
              "name": "recipients",
              "type": "address[]"
            }
          ],
          "internalType": "struct Fractionalize.BatchMintParams",
          "name": "params",
          "type": "tuple"
        }
      ],
      "name": "batchMintShares",
      "outputs": [],
      "stateMutability": "nonpayable",
      "type": "function"
    },
    {
      "inputs": [
        {
          "internalType": "uint256",
          "name": "fractionId",
          "type": "uint256"
        },
        {
          "internalType": "uint256",
          "name": "shareId",
          "type": "uint256"
        }
      ],
      "name": "burnShare",
      "outputs": [],
      "stateMutability": "nonpayable",
      "type": "function"
    },
    {
      "inputs": [
        {
          "internalType": "uint256",
          "name": "fractionId",
          "type": "uint256"
        },
        {
          "internalType": "address",
          "name": "account",
          "type": "address"
        }
      ],
      "name": "canReceiveShares",
      "outputs": [
        {
          "internalType": "bool",
          "name": "",
          "type": "bool"
        }
      ],
      "stateMutability": "view",
      "type": "function"
    },
    {
      "inputs": [
        {
          "components": [
            {
              "internalType": "enum Fractionalize.FractionAssetType",
              "name": "assetType",
              "type": "uint8"
            },
            {
              "internalType": "uint256",
              "name": "originalTokenId",
              "type": "uint256"
            },
            {
              "internalType": "string",
              "name": "name",
              "type": "string"
            },
            {
              "internalType": "string",
              "name": "description",
              "type": "string"
            },
            {
              "internalType": "string",
              "name": "symbol",
              "type": "string"
            },
            {
              "internalType": "string",
              "name": "collectionUri",
              "type": "string"
            },
            {
              "internalType": "uint256",
              "name": "totalShares",
              "type": "uint256"
            },
            {
              "internalType": "bool",
              "name": "burnable",
              "type": "bool"
            },
            {
              "internalType": "uint256",
              "name": "approvalPercentage",
              "type": "uint256"
            }
          ],
          "internalType": "struct Fractionalize.FractionCreationParams",
          "name": "params",
          "type": "tuple"
        }
      ],
      "name": "createFraction",
      "outputs": [],
      "stateMutability": "nonpayable",
      "type": "function"
    },
    {
      "inputs": [],
      "name": "deedNFT",
      "outputs": [
        {
          "internalType": "contract IDeedNFT",
          "name": "",
          "type": "address"
        }
      ],
      "stateMutability": "view",
      "type": "function"
    },
    {
      "inputs": [
        {
          "internalType": "uint256",
          "name": "fractionId",
          "type": "uint256"
        },
        {
          "internalType": "address",
          "name": "account",
          "type": "address"
        }
      ],
      "name": "getApprovals",
      "outputs": [
        {
          "internalType": "bool",
          "name": "transferApproved",
          "type": "bool"
        },
        {
          "internalType": "bool",
          "name": "adminApproved",
          "type": "bool"
        }
      ],
      "stateMutability": "view",
      "type": "function"
    },
    {
      "inputs": [
        {
          "internalType": "uint256",
          "name": "fractionId",
          "type": "uint256"
        }
      ],
      "name": "getFractionBasicInfo",
      "outputs": [
        {
          "components": [
            {
              "internalType": "string",
              "name": "name",
              "type": "string"
            },
            {
              "internalType": "string",
              "name": "symbol",
              "type": "string"
            },
            {
              "internalType": "uint256",
              "name": "totalShares",
              "type": "uint256"
            },
            {
              "internalType": "uint256",
              "name": "activeShares",
              "type": "uint256"
            },
            {
              "internalType": "uint256",
              "name": "maxSharesPerWallet",
              "type": "uint256"
            }
          ],
          "internalType": "struct Fractionalize.FractionBasicInfo",
          "name": "",
          "type": "tuple"
        }
      ],
      "stateMutability": "view",
      "type": "function"
    },
    {
      "inputs": [
        {
          "internalType": "uint256",
          "name": "fractionId",
          "type": "uint256"
        }
      ],
      "name": "getFractionExtendedInfo",
      "outputs": [
        {
          "components": [
            {
              "internalType": "string",
              "name": "description",
              "type": "string"
            },
            {
              "internalType": "string",
              "name": "collectionUri",
              "type": "string"
            },
            {
              "internalType": "uint256",
              "name": "requiredApprovalPercentage",
              "type": "uint256"
            },
            {
              "internalType": "bool",
              "name": "isActive",
              "type": "bool"
            },
            {
              "internalType": "bool",
              "name": "burnable",
              "type": "bool"
            }
          ],
          "internalType": "struct Fractionalize.FractionExtendedInfo",
          "name": "",
          "type": "tuple"
        }
      ],
      "stateMutability": "view",
      "type": "function"
    },
    {
      "inputs": [
        {
          "internalType": "uint256",
          "name": "fractionId",
          "type": "uint256"
        }
      ],
      "name": "getFractionOwnershipInfo",
      "outputs": [
        {
          "components": [
            {
              "internalType": "enum Fractionalize.FractionAssetType",
              "name": "assetType",
              "type": "uint8"
            },
            {
              "internalType": "uint256",
              "name": "originalTokenId",
              "type": "uint256"
            },
            {
              "internalType": "address",
              "name": "collectionAdmin",
              "type": "address"
            }
          ],
          "internalType": "struct Fractionalize.FractionOwnershipInfo",
          "name": "",
          "type": "tuple"
        }
      ],
      "stateMutability": "view",
      "type": "function"
    },
    {
      "inputs": [
        {
          "internalType": "bytes32",
          "name": "role",
          "type": "bytes32"
        }
      ],
      "name": "getRoleAdmin",
      "outputs": [
        {
          "internalType": "bytes32",
          "name": "",
          "type": "bytes32"
        }
      ],
      "stateMutability": "view",
      "type": "function"
    },
    {
      "inputs": [
        {
          "internalType": "uint256",
          "name": "fractionId",
          "type": "uint256"
        },
        {
          "internalType": "uint256",
          "name": "shareId",
          "type": "uint256"
        }
      ],
      "name": "getShareMetadata",
      "outputs": [
        {
          "internalType": "string",
          "name": "",
          "type": "string"
        }
      ],
      "stateMutability": "view",
      "type": "function"
    },
    {
      "inputs": [
        {
          "internalType": "uint256",
          "name": "fractionId",
          "type": "uint256"
        },
        {
          "internalType": "address",
          "name": "account",
          "type": "address"
        }
      ],
      "name": "getVotingPower",
      "outputs": [
        {
          "internalType": "uint256",
          "name": "",
          "type": "uint256"
        }
      ],
      "stateMutability": "view",
      "type": "function"
    },
    {
      "inputs": [
        {
          "internalType": "bytes32",
          "name": "role",
          "type": "bytes32"
        },
        {
          "internalType": "address",
          "name": "account",
          "type": "address"
        }
      ],
      "name": "grantRole",
      "outputs": [],
      "stateMutability": "nonpayable",
      "type": "function"
    },
    {
      "inputs": [
        {
          "internalType": "bytes32",
          "name": "role",
          "type": "bytes32"
        },
        {
          "internalType": "address",
          "name": "account",
          "type": "address"
        }
      ],
      "name": "hasRole",
      "outputs": [
        {
          "internalType": "bool",
          "name": "",
          "type": "bool"
        }
      ],
      "stateMutability": "view",
      "type": "function"
    },
    {
      "inputs": [
        {
          "internalType": "address",
          "name": "_deedNFT",
          "type": "address"
        },
        {
          "internalType": "address",
          "name": "_subdivideNFT",
          "type": "address"
        }
      ],
      "name": "initialize",
      "outputs": [],
      "stateMutability": "nonpayable",
      "type": "function"
    },
    {
      "inputs": [
        {
          "internalType": "address",
          "name": "account",
          "type": "address"
        },
        {
          "internalType": "address",
          "name": "operator",
          "type": "address"
        }
      ],
      "name": "isApprovedForAll",
      "outputs": [
        {
          "internalType": "bool",
          "name": "",
          "type": "bool"
        }
      ],
      "stateMutability": "view",
      "type": "function"
    },
    {
      "inputs": [
        {
          "internalType": "uint256",
          "name": "fractionId",
          "type": "uint256"
        },
        {
          "internalType": "uint256",
          "name": "shareId",
          "type": "uint256"
        },
        {
          "internalType": "address",
          "name": "to",
          "type": "address"
        }
      ],
      "name": "mintShare",
      "outputs": [],
      "stateMutability": "nonpayable",
      "type": "function"
    },
    {
      "inputs": [],
      "name": "nextFractionId",
      "outputs": [
        {
          "internalType": "uint256",
          "name": "",
          "type": "uint256"
        }
      ],
      "stateMutability": "view",
      "type": "function"
    },
    {
      "inputs": [],
      "name": "pause",
      "outputs": [],
      "stateMutability": "nonpayable",
      "type": "function"
    },
    {
      "inputs": [],
      "name": "paused",
      "outputs": [
        {
          "internalType": "bool",
          "name": "",
          "type": "bool"
        }
      ],
      "stateMutability": "view",
      "type": "function"
    },
    {
      "inputs": [],
      "name": "proxiableUUID",
      "outputs": [
        {
          "internalType": "bytes32",
          "name": "",
          "type": "bytes32"
        }
      ],
      "stateMutability": "view",
      "type": "function"
    },
    {
      "inputs": [
        {
          "internalType": "bytes32",
          "name": "role",
          "type": "bytes32"
        },
        {
          "internalType": "address",
          "name": "account",
          "type": "address"
        }
      ],
      "name": "renounceRole",
      "outputs": [],
      "stateMutability": "nonpayable",
      "type": "function"
    },
    {
      "inputs": [
        {
          "internalType": "bytes32",
          "name": "role",
          "type": "bytes32"
        },
        {
          "internalType": "address",
          "name": "account",
          "type": "address"
        }
      ],
      "name": "revokeRole",
      "outputs": [],
      "stateMutability": "nonpayable",
      "type": "function"
    },
    {
      "inputs": [
        {
          "internalType": "address",
          "name": "from",
          "type": "address"
        },
        {
          "internalType": "address",
          "name": "to",
          "type": "address"
        },
        {
          "internalType": "uint256[]",
          "name": "ids",
          "type": "uint256[]"
        },
        {
          "internalType": "uint256[]",
          "name": "amounts",
          "type": "uint256[]"
        },
        {
          "internalType": "bytes",
          "name": "data",
          "type": "bytes"
        }
      ],
      "name": "safeBatchTransferFrom",
      "outputs": [],
      "stateMutability": "nonpayable",
      "type": "function"
    },
    {
      "inputs": [
        {
          "internalType": "address",
          "name": "from",
          "type": "address"
        },
        {
          "internalType": "address",
          "name": "to",
          "type": "address"
        },
        {
          "internalType": "uint256",
          "name": "id",
          "type": "uint256"
        },
        {
          "internalType": "uint256",
          "name": "amount",
          "type": "uint256"
        },
        {
          "internalType": "bytes",
          "name": "data",
          "type": "bytes"
        }
      ],
      "name": "safeTransferFrom",
      "outputs": [],
      "stateMutability": "nonpayable",
      "type": "function"
    },
    {
      "inputs": [
        {
          "internalType": "address",
          "name": "operator",
          "type": "address"
        },
        {
          "internalType": "bool",
          "name": "approved",
          "type": "bool"
        }
      ],
      "name": "setApprovalForAll",
      "outputs": [],
      "stateMutability": "nonpayable",
      "type": "function"
    },
    {
      "inputs": [],
      "name": "subdivideNFT",
      "outputs": [
        {
          "internalType": "contract ISubdivide",
          "name": "",
          "type": "address"
        }
      ],
      "stateMutability": "view",
      "type": "function"
    },
    {
      "inputs": [
        {
          "internalType": "bytes4",
          "name": "interfaceId",
          "type": "bytes4"
        }
      ],
      "name": "supportsInterface",
      "outputs": [
        {
          "internalType": "bool",
          "name": "",
          "type": "bool"
        }
      ],
      "stateMutability": "view",
      "type": "function"
    },
    {
      "inputs": [
        {
          "components": [
            {
              "internalType": "uint256",
              "name": "fractionId",
              "type": "uint256"
            },
            {
              "internalType": "address",
              "name": "to",
              "type": "address"
            },
            {
              "internalType": "bool",
              "name": "checkApprovals",
              "type": "bool"
            }
          ],
          "internalType": "struct Fractionalize.UnlockParams",
          "name": "params",
          "type": "tuple"
        }
      ],
      "name": "unlockAsset",
      "outputs": [],
      "stateMutability": "nonpayable",
      "type": "function"
    },
    {
      "inputs": [],
      "name": "unpause",
      "outputs": [],
      "stateMutability": "nonpayable",
      "type": "function"
    },
    {
      "inputs": [
        {
          "internalType": "address",
          "name": "newImplementation",
          "type": "address"
        }
      ],
      "name": "upgradeTo",
      "outputs": [],
      "stateMutability": "nonpayable",
      "type": "function"
    },
    {
      "inputs": [
        {
          "internalType": "address",
          "name": "newImplementation",
          "type": "address"
        },
        {
          "internalType": "bytes",
          "name": "data",
          "type": "bytes"
        }
      ],
      "name": "upgradeToAndCall",
      "outputs": [],
      "stateMutability": "payable",
      "type": "function"
    },
    {
      "inputs": [
        {
          "internalType": "uint256",
          "name": "",
          "type": "uint256"
        }
      ],
      "name": "uri",
      "outputs": [
        {
          "internalType": "string",
          "name": "",
          "type": "string"
        }
      ],
      "stateMutability": "view",
      "type": "function"
    }
  ],
  "bytecode": "0x60a080604052346083573060805260005460ff8160081c1660835760ff80821603604a575b60405161371a90816100898239608051818181610c5d01528181610f6c0152611c1f0152f35b7f7f26b83ff96e1f2b6a682f133852f6798a09c465da95921460cefb38474024989160ff6020928119161760005560ff8152a138806024565b600080fdfe6080604052600436101561001257600080fd5b6000803560e01c8062fdd58e1461267d57806301ffc9a7146125f45780630e89341c1461252457806319a35e6e146124b9578063248a9ca31461249a5780632eb2c2d61461218d5780632f275fe3146120d15780632f2ff15d1461203057806330c7b16c14611e5757806336568abe14611e215780633659cfe614611c035780633f4ba83a14611baa578063463c856514611544578063485cc955146112c35780634e1273f41461117f5780634ed828721461114e5780634f1ef28614610f3657806351aca42b14610ca357806352d1902d14610c4a5780635c975abb14610c275780636741a0be14610b755780636deba22814610ac957806370c4c66814610a9f57806375b238fc14610a765780637ac69fac1461078457806380623bcb146107515780638456cb59146106f657806391d14854146106aa578063a217fddf1461068e578063a22cb465146105fd578063bb6de9c1146105de578063c7f01cac146105b4578063d547741f1461057a578063dbdad4321461054b578063e985e9c5146104f1578063f01bcf311461041d5763f242432a146101b357600080fd5b3461041a5760a036600319011261041a576101cc6126a5565b6101d46126bb565b60443590606435906084356001600160401b0381116103b2576101fb903690600401612815565b9360ff60c954166103b2576001600160a01b03169283151580610408575b6103d9575b33841480156103b6575b156103b2576001600160a01b0382169182156103ae57610247826133a6565b50610251846133a6565b50818752606560205260408720856000526020526040600020548481106103aa5782885260656020526040882086600052602052846040600020910390558187526065602052604087208360005260205260406000206102b2858254612bef565b9055828560405184815286602082015260008051602061368583398151915260403392a43b6102df578580f35b60006020946103216040519788968795869463f23a6e6160e01b865233600487015260248601526044850152606484015260a0608484015260a48301906126f4565b03925af160009181610379575b506103595761033b6133f1565b6308c379a01461034a57600080fd5b61035261340f565b505b600080fd5b6001600160e01b031916630dc5919f60e01b016103545738808080808580f35b61039c91925060203d6020116103a3575b6103948183612765565b8101906133d1565b903861032e565b503d61038a565b8780fd5b8680fd5b8580fd5b50838652606660209081526040808820336000908152925290205460ff16610228565b8060801c80875261016160205260ff600860408920015416156103ae578261040091612b17565b61021e578580fd5b506001600160a01b0382161515610219565b80fd5b503461041a57602036600319011261041a5760406104c39161043d612b8d565b506004358152610161602052206007810154600882015461047a6003604051946104668661274a565b61047260018201612938565b865201612938565b60208401908152604084019283526104d6606085019160ff84161515835260ff608087019460081c1615158452604051968796602088525160a0602089015260c08801906126f4565b9051868203601f190160408801526126f4565b92516060850152511515608084015251151560a08301520390f35b503461041a57604036600319011261041a57604061050d6126a5565b916105166126bb565b9260018060a01b031681526066602052209060018060a01b0316600052602052602060ff604060002054166040519015158152f35b503461041a57604036600319011261041a57602061057261056a6126bb565b600435612e99565b604051908152f35b503461041a57604036600319011261041a576105b160043561059a6126bb565b906105ac6105a7826129dc565b613020565b613069565b80f35b503461041a578060031936011261041a5761015f546040516001600160a01b039091168152602090f35b503461041a578060031936011261041a57602061016254604051908152f35b503461041a57604036600319011261041a576106176126a5565b6024359081151580920361068a576001600160a01b03169033821461068a5733835260666020526040832082600052602052604060002060ff1981541660ff83161790556040519081527f17307eab39ab6107e8899845ad3d59bd9653f200f220920489ca2b5937696c3160203392a380f35b8280fd5b503461041a578060031936011261041a57602090604051908152f35b503461041a57604036600319011261041a5760406106c66126bb565b9160043581526097602052209060018060a01b0316600052602052602060ff604060002054166040519015158152f35b503461041a578060031936011261041a5761070f612fc2565b61071761305d565b600160ff1960c954161760c9557f62e78cea01bee320cd4e420270b5ea74000d11b0c9f74754ebdbfc544b05a2586020604051338152a180f35b503461041a5761078061076c610766366128b3565b90612c0c565b6040519182916020835260208301906126f4565b0390f35b503461041a57602036600319011261041a57600435906001600160401b03821161041a57816004019160606003198236030112610a72576107c361305d565b8235808352610161602052604083209260088401549460ff861615610a7257602484019160446107f38484612bba565b96905001946108028684612bba565b9190500361041a576005860195610826875461081e8686612bba565b919050612bef565b97600482019889541061068a5760101c60ff166002811015610a5e576109fe576020600960018060a01b0361015f54169201546024604051809481936331a9108f60e11b835260048301525afa9081156109f35782916109c4575b505b6001600160a01b0316330361041a578096958460801b956020985b6108a88686612bba565b90508110156109c0576108c5816108bf8888612bba565b90612bfc565b35895411156109bc57806108f36108ee6108df8589612bba565b6001600160a01b039491612bfc565b612b79565b166109a657335b6109048189612b17565b156109a2576109348b61091b846108bf8b8b612bba565b358b1761092b6040519283612765565b87825283613253565b83546001810180911161098e57845560019190887fa1aef1fc9ddb086cd9a3e02351c5f9ee731ca2f343a73df69ab4857a530fb5508d610978856108bf8d8d612bba565b359360405190878060a01b03168152a30161089e565b634e487b7160e01b86526011600452602486fd5b8480fd5b6109b76108ee826108bf8589612bba565b6108fa565b8380fd5b8380f35b6109e6915060203d6020116109ec575b6109de8183612765565b810190612a4c565b38610881565b503d6109d4565b6040513d84823e3d90fd5b6020600960018060a01b0361016054169201546024604051809481936331a9108f60e11b835260048301525afa9081156109f3578291610a3f575b50610883565b610a58915060203d6020116109ec576109de8183612765565b38610a39565b634e487b7160e01b83526021600452602483fd5b5080fd5b503461041a578060031936011261041a5760206040516000805160206136c58339815191528152f35b503461041a578060031936011261041a57610160546040516001600160a01b039091168152602090f35b503461041a57610ad8366128b3565b90610ae161305d565b80835261016160205260408320600881015460ff8116156109a25760081c60ff16156109bc57828260801b1790610b1882336128c9565b156109a257610b29600592336131aa565b018054600019810191908211610b6157557ff02a1ee6ee1710d20c22fc38be5af1e90e1a950effc4485bcf2f210933bc01c28380a380f35b634e487b7160e01b85526011600452602485fd5b503461041a57602036600319011261041a5760406104c391610b95612b8d565b5060043581526101616020522060048101546005820154600683015490610c10610bd8600260405196610bc78861274a565b610bd081612938565b885201612938565b60208601908152604086019485526060860192835260808601938452604051968796602088525160a0602089015260c08801906126f4565b925160608501525160808401525160a08301520390f35b503461041a578060031936011261041a57602060ff60c954166040519015158152f35b503461041a578060031936011261041a577f00000000000000000000000000000000000000000000000000000000000000006001600160a01b0316300361041a5760206040516000805160206136a58339815191528152f35b503461041a57606036600319011261041a576000610cbf61305d565b6001600160a01b03610ccf612b63565b1615610a725760043580835261016160205260408320916008830160ff815416156109a257604435801515810361068a5715610f1a57610d0e836130ff565b156109a2579290925b82855261016160205260408520916004869301948460801b935b8654811015610d8c57806001918617610d4a81336128c9565b610d56575b5001610d31565b610d6090336131aa565b80877ff02a1ee6ee1710d20c22fc38be5af1e90e1a950effc4485bcf2f210933bc01c28b80a338610d4f565b5086949350610d99612b63565b60ff845460101c166002811015610f065786929190610e745760018060a01b0361015f5416906009850154823b156109a257610def928592836040518096819582946323b872dd60e01b84523060048501612a6b565b03925af18015610e6957610e52575b50505060096040917f01e83ff8ce295a77efd8cda72a6cabca9b0291b48b140335e26ac88b258ffdf8935b805460ff191690550154610e3b612b63565b82519182526001600160a01b03166020820152a280f35b82610e5c91612765565b126109bc57838580610dfe565b6040513d85823e3d90fd5b60018060a01b036101605416906009850154823b156109a257610eb1928592836040518096819582946323b872dd60e01b84523060048501612a6b565b03925af18015610e6957610eef575b50505060096040917f01e83ff8ce295a77efd8cda72a6cabca9b0291b48b140335e26ac88b258ffdf893610e29565b82610ef991612765565b126109bc57838580610ec0565b634e487b7160e01b87526021600452602487fd5b610f243384612e99565b6005850154036109a257929092610d17565b50604036600319011261041a57610f4b6126a5565b6024356001600160401b03811161068a57610f6a903690600401612815565b7f00000000000000000000000000000000000000000000000000000000000000006001600160a01b03163081146109bc576000805160206136a5833981519152546001600160a01b03160361068a57610fc1612ef5565b7f4910fdfa16fed3260ed0e7147f7cc6da11a60208b5b9406d12a635614ffd91435460ff1615610ff557506105b190613370565b6040516352d1902d60e01b81526001600160a01b03831690602081600481855afa6000918161111a575b5061102957600080fd5b6000805160206136a5833981519152036103545761104683613370565b7fbc7cd75a20ee27fd9adebab32041f755214dbc6bffa90cc0225b39da2e5c2d3b600080a2805115801590611112575b61107f57505080f35b6111069160008060405193611095606086612765565b602785527f416464726573733a206c6f772d6c6576656c2064656c65676174652063616c6c6020860152660819985a5b195960ca1b6040860152602081519101845af43d1561110a573d916110e9836127fa565b926110f76040519485612765565b83523d6000602085013e613639565b5080f35b606091613639565b506001611076565b9091506020813d602011611146575b8161113660209383612765565b810103126103545751903861101f565b3d9150611129565b503461041a57604036600319011261041a57602061117561116d6126bb565b600435612b17565b6040519015158152f35b503461041a57604036600319011261041a576004356001600160401b038111610a725736602382011215610a725780600401356111bb81612786565b916111c96040519384612765565b8183526024602084019260051b820101903682116109a257602401915b8183106112a3575050506024356001600160401b03811161068a5761120f90369060040161279d565b8151928151840361041a5761122384612786565b936112316040519586612765565b808552611240601f1991612786565b013660208601375b825181101561128d5760019061127c6001600160a01b0361126983876129f0565b511661127583866129f0565b51906128c9565b61128682876129f0565b5201611248565b604051602080825281906107809082018761287f565b82356001600160a01b0381168103610354578152602092830192016111e6565b503461041a57604036600319011261041a576112dd6126a5565b906112e66126bb565b81549060ff8260081c161591828093611537575b8015611520575b156109bc5760ff19811660011784558261150f575b50602092806040516113288682612765565b5260ff815460081c161561041a57936113426067546128fe565b601f81116114e2575b5060006067556113596130ef565b60ff855460081c16156109a257600060ff1960c9541660c95561137a6130ef565b808052609785526040808220338352865281205460ff16156114a8575b6000805160206136c58339815191528152609785526040808220338352865281205460ff161561145c575b506001600160a01b03168015158061144a575b156109a25760018060a01b031961015f54161761015f5560018060a01b031660018060a01b031961016054161761016055600161016255611414575080f35b7f7f26b83ff96e1f2b6a682f133852f6798a09c465da95921460cefb38474024989061ff0019835416835560405160018152a180f35b506001600160a01b03821615156113d5565b6000805160206136c583398151915280825260978652604080832033808552908852908320805460ff19166001179055918291906000805160206136658339815191529080a4386113c2565b80805260978552604080822033808452908752908220805460ff1916600117905580826000805160206136658339815191528180a4611397565b6067600052601f85600020910160051c8101905b818110611503575061134b565b600081556001016114f6565b61ffff191661010117835538611316565b50303b1580156113015750600160ff821614611301565b50600160ff8216106112fa565b503461041a57602036600319011261041a576004356001600160401b038111610a72578060040190610120600319823603011261068a5761158361305d565b60c48101359081156109bc576084810161159d8185612a1a565b9050156109a257610104820135603381101580611b9f575b156103b25784359360028510156103ae5784611ad3578660018060a01b0361015f54166024860135906040516331a9108f60e11b8152826004820152602081602481855afa908115611ac8578491611aa9575b50336001600160a01b039091160361068a57803b1561068a576040516323b872dd60e01b8152918391839182908490829061164890303360048501612a6b565b03925af180156109f357611a94575b50505b610162549561166887612a8d565b6101625586885261016160205260408820936116876044870183612a1a565b906001600160401b03821161199f576116aa826116a489546128fe565b89612ab2565b8a90601f8311600114611a30576116cb92918c91836118b2575b5050612b04565b85555b6116db6064870183612a1a565b60018701916001600160401b038211611a1c57611702826116fc85546128fe565b85612ab2565b8b908c601f84116001146119b357611731959493611728939092836118b2575050612b04565b90555b82612a1a565b60028601916001600160401b03821161199f57611752826116fc85546128fe565b8a908b601f841160011461193557611785959493611778939092836118b2575050612b04565b90555b60a4860190612a1a565b60038501916001600160401b038211611921576117a6826116fc85546128fe565b8990601f83116001146118bd576117c692918b91836118b2575050612b04565b90555b806004840155866005840155600683015560078201556008810191600160ff1984541617835560e481013590811515938483036103aa57805462ffff00191660089590951b61ff001694909417601086901b62ff00001617909355506024919091013560098201819055600a9190910180546001600160a01b03191633179055604080517fa379a41787135db8c779ef58cffe55aea43366b80fc86f3cd829f85188384351936020939286927fa547dbb6cf04ca31b41c3f23a52295ad75efadea228ce69e5be8c8d984cb843b926118a290829061285c565b8486820152a2604051908152a280f35b0135905038806116c4565b838b5260208b2091601f1984168c5b81811061190957509084600195949392106118ef575b505050811b0190556117c9565b0135600019600384901b60f8161c191690553880806118e2565b919360206001819287870135815501950192016118cc565b634e487b7160e01b8a52604160045260248afd5b50838c5260208c2091601f1984168d5b8181106119875750916001939185611785989796941061196d575b505050811b01905561177b565b0135600019600384901b60f8161c19169055388080611960565b91936020600181928787013581550195019201611945565b634e487b7160e01b8b52604160045260248bfd5b91601f19841685845260208420935b818110611a04575091600193918561173198979694106119ea575b505050811b01905561172b565b0135600019600384901b60f8161c191690553880806119dd565b919360206001819287870135815501950192016119c2565b634e487b7160e01b8c52604160045260248cfd5b878c5260208c2091601f1984168d5b818110611a7c5750908460019594939210611a62575b505050811b0185556116ce565b0135600019600384901b60f8161c19169055388080611a55565b91936020600181928787013581550195019201611a3f565b81611a9e91612765565b6103ae578638611657565b611ac2915060203d6020116109ec576109de8183612765565b38611608565b6040513d86823e3d90fd5b8660018060a01b03610160541660248601356040516331a9108f60e11b8152816004820152602081602481865afa908115611ac8578491611b80575b50336001600160a01b039091160361068a57813b1561068a578291611b4c916040519485809481936323b872dd60e01b8352303360048501612a6b565b03925af18015611b7557611b61575b5061165a565b87611b6e91989298612765565b9538611b5b565b6040513d8a823e3d90fd5b611b99915060203d6020116109ec576109de8183612765565b38611b0f565b5060648111156115b5565b503461041a578060031936011261041a57611bc3612fc2565b60c95460ff811615610a725760ff191660c9557f5db9ee0a495bf2e6ff9c91a7834c1ba4fdd244a5e8aa4e537bd38aeae4b073aa6020604051338152a180f35b503461041a57602036600319011261041a57611c1d6126a5565b7f00000000000000000000000000000000000000000000000000000000000000006001600160a01b031630811461068a576000805160206136a5833981519152546001600160a01b031603610a7257611c74612ef5565b602090604051611c848382612765565b83815282810192601f1981013685377f4910fdfa16fed3260ed0e7147f7cc6da11a60208b5b9406d12a635614ffd91435460ff1615611cc95750506105b19150613370565b6040516352d1902d60e01b8152919290916001600160a01b038216908381600481855afa879181611df2575b50611cfe578680fd5b6000805160206136a5833981519152036103b257611d1b82613370565b7fbc7cd75a20ee27fd9adebab32041f755214dbc6bffa90cc0225b39da2e5c2d3b8680a284835115801590611deb575b611d58575b505050505080f35b80611dd79560405195611d6c606088612765565b602787527f416464726573733a206c6f772d6c6576656c2064656c65676174652063616c6c86880152660819985a5b195960ca1b60408801525190845af4903d15611de2573d611dbb816127fa565b90611dc96040519283612765565b81528681943d92013e613639565b503880808084611d50565b60609250613639565b5080611d4b565b9091508481813d8311611e1a575b611e0a8183612765565b810103126103aa57519038611cf5565b503d611e00565b503461041a57604036600319011261041a57611e3b6126bb565b336001600160a01b03821603610a72576105b190600435613069565b503461041a57606036600319011261041a576024356004356044356001600160a01b0381168082036109a257611e8b61305d565b8285526101616020526040852060088101549260ff8416156103ae57600482015492838710156103aa576005830193845410156103aa5761202a575033925b611ed48486612b17565b156103ae5760101c60ff166002811015610f0657611fca576020600960018060a01b0361015f54169201546024604051809481936331a9108f60e11b835260048301525afa908115611fbf578691611fa0575b505b6001600160a01b031633036109a257611f58604051611f49602082612765565b868152858560801b1784613253565b8054906001820180921161098e57556040516001600160a01b0390911681527fa1aef1fc9ddb086cd9a3e02351c5f9ee731ca2f343a73df69ab4857a530fb55090602090a380f35b611fb9915060203d6020116109ec576109de8183612765565b38611f27565b6040513d88823e3d90fd5b6020600960018060a01b0361016054169201546024604051809481936331a9108f60e11b835260048301525afa908115611fbf57869161200b575b50611f29565b612024915060203d6020116109ec576109de8183612765565b38612005565b92611eca565b503461041a57604036600319011261041a5760043561204d6126bb565b9061205a6105a7826129dc565b8083526097602090815260408085206001600160a01b038516865290915283205460ff1615612087578280f35b8083526097602090815260408085206001600160a01b0394909416808652939091528320805460ff191660011790553391906000805160206136658339815191528480a438808280f35b503461041a57602036600319011261041a5780604080516120f181612719565b828152826020820152015260043581526101616020526040812060ff600882015460101c1690600981015490600a60018060a01b0391015416906040519361213885612719565b6002841015612179575060408484606096526020810192835201918252612162604051809461285c565b516020830152516001600160a01b03166040820152f35b634e487b7160e01b81526021600452602490fd5b503461041a5760a036600319011261041a576121a76126a5565b6121af6126bb565b906044356001600160401b0381116109bc576121cf90369060040161279d565b906064356001600160401b0381116109a2576121ef90369060040161279d565b6084356001600160401b0381116103b25761220e903690600401612815565b9160ff60c954166103b2576001600160a01b03169283151580612488575b61242f575b338414801561240e575b156103b25780518251036103b2576001600160a01b0385169283156103ae5786805b83518110156122e25761227081856129f0565b519061227c81876129f0565b518284526065602052604084208985526020526040842054928184106109a2576001938186526065602052604086208b875260205282604087209103905584526065602052604084208885526020526122da60408520918254612bef565b90550161225d565b50909392958386887f4a39dc06d4c0dbc64b70af90fd698a233a518aa5d07e595d983b8c0526c8f7fb6040516040815280612332612323604083018b61287f565b8281036020840152339561287f565b0390a43b61233d5780f35b60209461239e61237a9561238c604051998a988997889663bc197c8160e01b8852336004890152602488015260a0604488015260a487019061287f565b8581036003190160648701529061287f565b838103600319016084850152906126f4565b03925af18291816123ed575b506123cd57506123b86133f1565b6308c379a0146123c55780fd5b610a7261340f565b6001600160e01b0319166343e6837f60e01b0161041a5738808080808580f35b61240791925060203d6020116103a3576103948183612765565b90386123aa565b5083865260666020908152604080882033895290915286205460ff1661223b565b9185949391945b835181101561247d5761244981856129f0565b5160801c80885261016160205260ff600860408a20015416156103aa578561247091612b17565b156103ae57600101612436565b509193909293612231565b506001600160a01b038516151561222c565b503461041a57602036600319011261041a5760206105726004356129dc565b503461041a57604036600319011261041a5760409060ff826124d96126bb565b926004358152610161602052600d82822060018060a01b0386168352600c81016020528484842054169560018060a01b03168352016020522054168251911515825215156020820152f35b503461041a57602036600319011261041a57604051908060675490612548826128fe565b80855291600181169081156125cd5750600114612570575b6107808461076c81860382612765565b606781527f9787eeb91fe3101235e4a76063c7023ecb40f923f97916639c598592fa30d6ae939250905b8082106125b35750909150810160200161076c82612560565b91926001816020925483858801015201910190929161259a565b60ff191660208087019190915292151560051b8501909201925061076c9150839050612560565b503461041a57602036600319011261041a5760043563ffffffff60e01b8116809103610a7257602090637965db0b60e01b811490811561263a575b506040519015158152f35b636cdb3d1360e11b81149150811561266c575b811561265b575b508261262f565b6301ffc9a760e01b14905082612654565b6303a24d0760e21b8114915061264d565b503461041a57604036600319011261041a57602061057261269c6126a5565b602435906128c9565b600435906001600160a01b038216820361035457565b602435906001600160a01b038216820361035457565b60005b8381106126e45750506000910152565b81810151838201526020016126d4565b9060209161270d815180928185528580860191016126d1565b601f01601f1916010190565b606081019081106001600160401b0382111761273457604052565b634e487b7160e01b600052604160045260246000fd5b60a081019081106001600160401b0382111761273457604052565b90601f801991011681019081106001600160401b0382111761273457604052565b6001600160401b0381116127345760051b60200190565b9080601f830112156103545781356127b481612786565b926127c26040519485612765565b81845260208085019260051b82010192831161035457602001905b8282106127ea5750505090565b81358152602091820191016127dd565b6001600160401b03811161273457601f01601f191660200190565b81601f820112156103545780359061282c826127fa565b9261283a6040519485612765565b8284526020838301011161035457816000926020809301838601378301015290565b9060028210156128695752565b634e487b7160e01b600052602160045260246000fd5b906020808351928381520192019060005b81811061289d5750505090565b8251845260209384019390920191600101612890565b6040906003190112610354576004359060243590565b906001600160a01b0382161561035457600052606560205260406000209060018060a01b031660005260205260406000205490565b90600182811c9216801561292e575b602083101461291857565b634e487b7160e01b600052602260045260246000fd5b91607f169161290d565b906040519182600082549261294c846128fe565b80845293600181169081156129ba5750600114612973575b5061297192500383612765565b565b90506000929192526020600020906000915b81831061299e5750509060206129719282010138612964565b6020919350806001915483858901015201910190918492612985565b90506020925061297194915060ff191682840152151560051b82010138612964565b600052609760205260016040600020015490565b8051821015612a045760209160051b010190565b634e487b7160e01b600052603260045260246000fd5b903590601e198136030182121561035457018035906001600160401b0382116103545760200191813603831361035457565b9081602091031261035457516001600160a01b03811681036103545790565b6001600160a01b03918216815291166020820152604081019190915260600190565b6000198114612a9c5760010190565b634e487b7160e01b600052601160045260246000fd5b601f8211612abf57505050565b6000526020600020906020601f840160051c83019310612afa575b601f0160051c01905b818110612aee575050565b60008155600101612ae3565b9091508190612ada565b8160011b916000199060031b1c19161790565b908160005261016160205260406000209160ff600884015416158015612b57575b612b4f57600691612b4891612e99565b9101541190565b505050600190565b50600683015415612b38565b6024356001600160a01b03811681036103545790565b356001600160a01b03811681036103545790565b60405190612b9a8261274a565b600060808360608152606060208201528260408201528260608201520152565b903590601e198136030182121561035457018035906001600160401b03821161035457602001918160051b3603831361035457565b91908201809211612a9c57565b9190811015612a045760051b0190565b600052610161602052604060002060ff600882015416156103545760048101548210156103545781600052600b8101602052612c4b6040600020612938565b8051612e93575060030190600090808072184f03e93ff9f4daa797ed6e38ed64bf6a1f0160401b811015612e6d575b50600a906904ee2d6d415b85acef8160201b811015612e51575b662386f26fc10000811015612e3d575b6305f5e100811015612e2c575b612710811015612e1d575b6064811015612e0f575b1015612e05575b6001820190600a6021612cf8612ce2856127fa565b94612cf06040519687612765565b8086526127fa565b602085019590601f19013687378401015b60001901916f181899199a1a9b1b9c1cb0b131b232b360811b8282061a8353048015612d3857600a9091612d09565b5050604051928391600091805490612d4f826128fe565b9160018116908115612dde5750600114612d98575b50509281612d85612d9595602f60f81b6001969552518093868401906126d1565b010301601f198101835282612765565b90565b9091925060005260206000206000905b828210612dc057505082016020019080612d85612d64565b60209192939450806001915483858a01015201910185939291612da8565b60ff191660208088019190915283151590930286019092019350829150612d859050612d64565b9060010190612ccd565b606460029104930192612cc6565b61271060049104930192612cbc565b6305f5e10060089104930192612cb1565b662386f26fc1000060109104930192612ca4565b602093909301926904ee2d6d415b85acef8160201b9004612c94565b6040935072184f03e93ff9f4daa797ed6e38ed64bf6a1f0160401b90049050600a612c7a565b91505090565b919082600052610161602052604060002060009160046000920154915b828110612ec557509193505050565b612ed4818760801b17836128c9565b612ee1575b600101612eb6565b92612eed600191612a8d565b939050612ed9565b3360009081527f683723e34a772b6e4f2c919bba7fa32ed8ea11a8325f54da7db716e9d9dd98c7602052604090205460ff1615612f2e57565b610354612f3a33613493565b6011612f46600061358e565b91603760405193849276020b1b1b2b9b9a1b7b73a3937b61d1030b1b1b7bab73a1604d1b6020850152612f8281518092602086880191016126d1565b83017001034b99036b4b9b9b4b733903937b6329607d1b83820152612fb18251809360206048850191016126d1565b0101030190601f1982018152612765565b3360009081527f9805bb80c0cb3b8457cbce774d5adda6e717284b7d1e937eb2fdc8bbff924719602052604090205460ff1615612ffb57565b61035461300733613493565b6011612f466000805160206136c583398151915261358e565b600081815260976020908152604080832033845290915290205460ff16156130455750565b610354906011612f4661305733613493565b9261358e565b60ff60c9541661035457565b806000526097602052604060002060018060a01b03831660005260205260ff60406000205416613097575050565b60008181526097602090815260408083206001600160a01b0395909516808452949091528120805460ff19169055339291907ff6391f5c32d9c69d2a47ea670b442974b53935d1edc7fd64eb21e047a839171b9080a4565b60ff60005460081c161561035457565b806000526101616020526040600020906000809181906004850154915b82811061315357505050801561314b57606482029180830460641490151715612a9c5760079104910154111590565b505050600090565b613162818360801b17336128c9565b61316f575b60010161311c565b9261317990612a8d565b336000908152600d8701602052604090205490939060ff161561316757936131a2600191612a8d565b949050613167565b6001600160a01b03168015610354576131c2826133a6565b506131cd60016133a6565b5060209060006040516131e08482612765565b5282600052606582526040600020816000528252604060002054906001821061035457836000949285938452606585526040842083855285526040842090841901905560405190815260018482015260008051602061368583398151915260403392a46132506040519182612765565b52565b6001600160a01b038116929083156103545761326e836133a6565b5061327960016133a6565b50826000526065602052604060002084600052602052604060002080549060018201809211612a9c57558360006040518581526001602082015260008051602061368583398151915260403392a43b6132d157505050565b60405163f23a6e6160e01b815233600482015260006024820181905260448201939093526001606482015260a06084820152926020928492839190829061331c9060a48301906126f4565b03925af16000918161334f575b506133365761033b6133f1565b6001600160e01b031916630dc5919f60e01b0161035457565b61336991925060203d6020116103a3576103948183612765565b9038613329565b803b15610354576000805160206136a583398151915280546001600160a01b0319166001600160a01b0392909216919091179055565b6040908151916133b68184612765565b600183526020830190601f1901368237825115612a04575290565b9081602091031261035457516001600160e01b0319811681036103545790565b60009060033d116133fe57565b905060046000803e60005160e01c90565b600060443d10612d95576040513d600319016004823e8051913d60248401116001600160401b0384111761347c57828201928351916001600160401b038311613474573d840160031901858401602001116134745750612d9592910160200190612765565b949350505050565b92915050565b908151811015612a04570160200190565b6000906134a0602a6127fa565b916134ae6040519384612765565b602a83526134bc602a6127fa565b6020840190601f190136823783511561357a576030905382516001101561356657607860218401535060009060295b600181116134fc575061041a575090565b90600f81166010811015613552576f181899199a1a9b1b9c1cb0b131b232b360811b901a61352a8386613482565b5360041c90801561353e57600019016134eb565b634e487b7160e01b83526011600452602483fd5b634e487b7160e01b84526032600452602484fd5b634e487b7160e01b81526032600452602490fd5b634e487b7160e01b82526032600452602482fd5b60009061359b60426127fa565b916135a96040519384612765565b604283526135b760426127fa565b6020840190601f190136823783511561357a576030905382516001101561356657607860218401535060009060415b600181116135f7575061041a575090565b90600f81166010811015613552576f181899199a1a9b1b9c1cb0b131b232b360811b901a6136258386613482565b5360041c90801561353e57600019016135e6565b919250156136555781511561364c575090565b3b156103545790565b50805190811561035457602001fdfe2f8788117e7eff1d82e926ec794901d17c78024a50270940304540a733656f0dc3d58168c5ae7397731d063d5bbf3d657854427343f4c083240f7aacaa2d0f62360894a13ba1a3210667c828492db98dca3e2076cc3735a920a3ca505d382bbca49807205ce4d355092ef5a8a18f56e8913cf4a201fbe287825b095693c21775a2646970667358221220a3a2121ee9e14fa82b5b6b34fcd0292043ae5099d1519f3a03f5946a306d546764736f6c634300081d0033",
  "linkReferences": {},
  "deployedLinkReferences": {}
}