{
  "_format": "hh-sol-artifact-1",
  "contractName": "ValidatorRegistry",
  "sourceName": "src/core/ValidatorRegistry.sol",
  "abi": [
    {
      "inputs": [],
      "stateMutability": "nonpayable",
      "type": "constructor"
    },
    {
      "anonymous": false,
      "inputs": [
        {
          "indexed": false,
          "internalType": "address",
          "name": "previousAdmin",
          "type": "address"
        },
        {
          "indexed": false,
          "internalType": "address",
          "name": "newAdmin",
          "type": "address"
        }
      ],
      "name": "AdminChanged",
      "type": "event"
    },
    {
      "anonymous": false,
      "inputs": [
        {
          "indexed": true,
          "internalType": "address",
          "name": "beacon",
          "type": "address"
        }
      ],
      "name": "BeaconUpgraded",
      "type": "event"
    },
    {
      "anonymous": false,
      "inputs": [
        {
          "indexed": false,
          "internalType": "uint8",
          "name": "version",
          "type": "uint8"
        }
      ],
      "name": "Initialized",
      "type": "event"
    },
    {
      "anonymous": false,
      "inputs": [
        {
          "indexed": true,
          "internalType": "address",
          "name": "previousOwner",
          "type": "address"
        },
        {
          "indexed": true,
          "internalType": "address",
          "name": "newOwner",
          "type": "address"
        }
      ],
      "name": "OwnershipTransferred",
      "type": "event"
    },
    {
      "anonymous": false,
      "inputs": [
        {
          "indexed": true,
          "internalType": "bytes32",
          "name": "role",
          "type": "bytes32"
        },
        {
          "indexed": true,
          "internalType": "bytes32",
          "name": "previousAdminRole",
          "type": "bytes32"
        },
        {
          "indexed": true,
          "internalType": "bytes32",
          "name": "newAdminRole",
          "type": "bytes32"
        }
      ],
      "name": "RoleAdminChanged",
      "type": "event"
    },
    {
      "anonymous": false,
      "inputs": [
        {
          "indexed": true,
          "internalType": "bytes32",
          "name": "role",
          "type": "bytes32"
        },
        {
          "indexed": true,
          "internalType": "address",
          "name": "account",
          "type": "address"
        },
        {
          "indexed": true,
          "internalType": "address",
          "name": "sender",
          "type": "address"
        }
      ],
      "name": "RoleGranted",
      "type": "event"
    },
    {
      "anonymous": false,
      "inputs": [
        {
          "indexed": true,
          "internalType": "bytes32",
          "name": "role",
          "type": "bytes32"
        },
        {
          "indexed": true,
          "internalType": "address",
          "name": "account",
          "type": "address"
        },
        {
          "indexed": true,
          "internalType": "address",
          "name": "sender",
          "type": "address"
        }
      ],
      "name": "RoleRevoked",
      "type": "event"
    },
    {
      "anonymous": false,
      "inputs": [
        {
          "indexed": true,
          "internalType": "address",
          "name": "implementation",
          "type": "address"
        }
      ],
      "name": "Upgraded",
      "type": "event"
    },
    {
      "anonymous": false,
      "inputs": [
        {
          "indexed": true,
          "internalType": "address",
          "name": "validator",
          "type": "address"
        },
        {
          "indexed": false,
          "internalType": "uint256[]",
          "name": "assetTypes",
          "type": "uint256[]"
        }
      ],
      "name": "ValidatorAssetTypesUpdated",
      "type": "event"
    },
    {
      "anonymous": false,
      "inputs": [
        {
          "indexed": true,
          "internalType": "address",
          "name": "validator",
          "type": "address"
        },
        {
          "indexed": false,
          "internalType": "string",
          "name": "name",
          "type": "string"
        },
        {
          "indexed": false,
          "internalType": "uint256[]",
          "name": "supportedAssetTypes",
          "type": "uint256[]"
        }
      ],
      "name": "ValidatorRegistered",
      "type": "event"
    },
    {
      "anonymous": false,
      "inputs": [
        {
          "indexed": true,
          "internalType": "address",
          "name": "validator",
          "type": "address"
        },
        {
          "indexed": false,
          "internalType": "bool",
          "name": "isActive",
          "type": "bool"
        }
      ],
      "name": "ValidatorStatusUpdated",
      "type": "event"
    },
    {
      "inputs": [],
      "name": "DEFAULT_ADMIN_ROLE",
      "outputs": [
        {
          "internalType": "bytes32",
          "name": "",
          "type": "bytes32"
        }
      ],
      "stateMutability": "view",
      "type": "function"
    },
    {
      "inputs": [],
      "name": "REGISTRY_ADMIN_ROLE",
      "outputs": [
        {
          "internalType": "bytes32",
          "name": "",
          "type": "bytes32"
        }
      ],
      "stateMutability": "view",
      "type": "function"
    },
    {
      "inputs": [
        {
          "internalType": "uint256",
          "name": "",
          "type": "uint256"
        },
        {
          "internalType": "uint256",
          "name": "",
          "type": "uint256"
        }
      ],
      "name": "assetTypeValidators",
      "outputs": [
        {
          "internalType": "address",
          "name": "",
          "type": "address"
        }
      ],
      "stateMutability": "view",
      "type": "function"
    },
    {
      "inputs": [
        {
          "internalType": "bytes32",
          "name": "role",
          "type": "bytes32"
        }
      ],
      "name": "getRoleAdmin",
      "outputs": [
        {
          "internalType": "bytes32",
          "name": "",
          "type": "bytes32"
        }
      ],
      "stateMutability": "view",
      "type": "function"
    },
    {
      "inputs": [
        {
          "internalType": "address",
          "name": "validator",
          "type": "address"
        }
      ],
      "name": "getValidatorName",
      "outputs": [
        {
          "internalType": "string",
          "name": "",
          "type": "string"
        }
      ],
      "stateMutability": "view",
      "type": "function"
    },
    {
      "inputs": [
        {
          "internalType": "bytes32",
          "name": "role",
          "type": "bytes32"
        },
        {
          "internalType": "address",
          "name": "account",
          "type": "address"
        }
      ],
      "name": "grantRole",
      "outputs": [],
      "stateMutability": "nonpayable",
      "type": "function"
    },
    {
      "inputs": [
        {
          "internalType": "bytes32",
          "name": "role",
          "type": "bytes32"
        },
        {
          "internalType": "address",
          "name": "account",
          "type": "address"
        }
      ],
      "name": "hasRole",
      "outputs": [
        {
          "internalType": "bool",
          "name": "",
          "type": "bool"
        }
      ],
      "stateMutability": "view",
      "type": "function"
    },
    {
      "inputs": [],
      "name": "initialize",
      "outputs": [],
      "stateMutability": "nonpayable",
      "type": "function"
    },
    {
      "inputs": [
        {
          "internalType": "address",
          "name": "validator",
          "type": "address"
        }
      ],
      "name": "isValidatorRegistered",
      "outputs": [
        {
          "internalType": "bool",
          "name": "",
          "type": "bool"
        }
      ],
      "stateMutability": "view",
      "type": "function"
    },
    {
      "inputs": [],
      "name": "owner",
      "outputs": [
        {
          "internalType": "address",
          "name": "",
          "type": "address"
        }
      ],
      "stateMutability": "view",
      "type": "function"
    },
    {
      "inputs": [],
      "name": "proxiableUUID",
      "outputs": [
        {
          "internalType": "bytes32",
          "name": "",
          "type": "bytes32"
        }
      ],
      "stateMutability": "view",
      "type": "function"
    },
    {
      "inputs": [
        {
          "internalType": "address",
          "name": "validator",
          "type": "address"
        },
        {
          "internalType": "string",
          "name": "name",
          "type": "string"
        }
      ],
      "name": "registerValidator",
      "outputs": [],
      "stateMutability": "nonpayable",
      "type": "function"
    },
    {
      "inputs": [
        {
          "internalType": "address",
          "name": "validator",
          "type": "address"
        }
      ],
      "name": "removeValidator",
      "outputs": [],
      "stateMutability": "nonpayable",
      "type": "function"
    },
    {
      "inputs": [],
      "name": "renounceOwnership",
      "outputs": [],
      "stateMutability": "nonpayable",
      "type": "function"
    },
    {
      "inputs": [
        {
          "internalType": "bytes32",
          "name": "role",
          "type": "bytes32"
        },
        {
          "internalType": "address",
          "name": "account",
          "type": "address"
        }
      ],
      "name": "renounceRole",
      "outputs": [],
      "stateMutability": "nonpayable",
      "type": "function"
    },
    {
      "inputs": [
        {
          "internalType": "bytes32",
          "name": "role",
          "type": "bytes32"
        },
        {
          "internalType": "address",
          "name": "account",
          "type": "address"
        }
      ],
      "name": "revokeRole",
      "outputs": [],
      "stateMutability": "nonpayable",
      "type": "function"
    },
    {
      "inputs": [
        {
          "internalType": "bytes4",
          "name": "interfaceId",
          "type": "bytes4"
        }
      ],
      "name": "supportsInterface",
      "outputs": [
        {
          "internalType": "bool",
          "name": "",
          "type": "bool"
        }
      ],
      "stateMutability": "view",
      "type": "function"
    },
    {
      "inputs": [
        {
          "internalType": "address",
          "name": "newOwner",
          "type": "address"
        }
      ],
      "name": "transferOwnership",
      "outputs": [],
      "stateMutability": "nonpayable",
      "type": "function"
    },
    {
      "inputs": [
        {
          "internalType": "address",
          "name": "validator",
          "type": "address"
        },
        {
          "internalType": "uint256[]",
          "name": "assetTypes",
          "type": "uint256[]"
        }
      ],
      "name": "updateValidatorAssetTypes",
      "outputs": [],
      "stateMutability": "nonpayable",
      "type": "function"
    },
    {
      "inputs": [
        {
          "internalType": "address",
          "name": "validator",
          "type": "address"
        },
        {
          "internalType": "string",
          "name": "newName",
          "type": "string"
        }
      ],
      "name": "updateValidatorName",
      "outputs": [],
      "stateMutability": "nonpayable",
      "type": "function"
    },
    {
      "inputs": [
        {
          "internalType": "address",
          "name": "validator",
          "type": "address"
        },
        {
          "internalType": "bool",
          "name": "isActive",
          "type": "bool"
        }
      ],
      "name": "updateValidatorStatus",
      "outputs": [],
      "stateMutability": "nonpayable",
      "type": "function"
    },
    {
      "inputs": [
        {
          "internalType": "address",
          "name": "newImplementation",
          "type": "address"
        }
      ],
      "name": "upgradeTo",
      "outputs": [],
      "stateMutability": "nonpayable",
      "type": "function"
    },
    {
      "inputs": [
        {
          "internalType": "address",
          "name": "newImplementation",
          "type": "address"
        },
        {
          "internalType": "bytes",
          "name": "data",
          "type": "bytes"
        }
      ],
      "name": "upgradeToAndCall",
      "outputs": [],
      "stateMutability": "payable",
      "type": "function"
    },
    {
      "inputs": [
        {
          "internalType": "address",
          "name": "",
          "type": "address"
        }
      ],
      "name": "validators",
      "outputs": [
        {
          "internalType": "bool",
          "name": "isActive",
          "type": "bool"
        },
        {
          "internalType": "string",
          "name": "name",
          "type": "string"
        },
        {
          "internalType": "string",
          "name": "description",
          "type": "string"
        }
      ],
      "stateMutability": "view",
      "type": "function"
    }
  ],
  "bytecode": "0x60a080604052346083573060805260005460ff8160081c1660835760ff80821603604a575b60405161196690816100898239608051818181610b2101528181610bad0152610e900152f35b7f7f26b83ff96e1f2b6a682f133852f6798a09c465da95921460cefb38474024989160ff6020928119161760005560ff8152a138806024565b600080fdfe608080604052600436101561001357600080fd5b60003560e01c90816301ffc9a71461118157508063248a9ca31461115b5780632f2ff15d146110bc57806336568abe146110875780633659cfe614610e7557806340a141ff14610d885780634f1ef28614610b6757806352d1902d14610b0e57806364587e2314610986578063715018a61461092957806375c0f6b2146107db5780637b0b2c4c146106205780638129fc1c146104605780638da5cb5b1461043757806391d14854146103ea5780639d5328511461039c578063a217fddf14610380578063af2e2da91461032e578063bf584c4b14610305578063d04a68c7146102bd578063d547741f14610287578063f2fde38b1461024c578063fa52c7d8146101cc5763fbfc24941461012757600080fd5b346101c75760403660031901126101c757610140611204565b602435908115158092036101c7576101566117bb565b60018060a01b0316908160005261012d60205261017a600260406000200154611328565b156101c75760207fbb6b4490fc9cad217d8a40bdd2173384b86ce8730334d4755538867fea3c0afa918360005261012d8252604060002060ff1981541660ff8316179055604051908152a2005b600080fd5b346101c75760203660031901126101c7576001600160a01b036101ed611204565b1660005261012d602052604060002060ff81541661024861021c600361021560028601611362565b9401611362565b61023a60405194859415158552606060208601526060850190611303565b908382036040850152611303565b0390f35b346101c75760203660031901126101c757610265611204565b61026d6117bb565b6001600160a01b038116156101c757610285906117cf565b005b346101c75760403660031901126101c7576102856004356102a66111ee565b906102b86102b382611406565b611509565b611735565b346101c75760203660031901126101c7576001600160a01b036102de611204565b1660005261012d60205260206102fb600260406000200154611328565b1515604051908152f35b346101c75760003660031901126101c75760206040516000805160206118d18339815191528152f35b346101c75760203660031901126101c7576001600160a01b0361034f611204565b1660005261012d60205261024861036c6002604060002001611362565b604051918291602083526020830190611303565b346101c75760003660031901126101c757602060405160008152f35b346101c75760403660031901126101c75760243560043560005261012e60205260406000209081548110156101c757600091825260209182902001546040516001600160a01b039091168152f35b346101c75760403660031901126101c7576104036111ee565b600435600052606560205260406000209060018060a01b0316600052602052602060ff604060002054166040519015158152f35b346101c75760003660031901126101c7576097546040516001600160a01b039091168152602090f35b346101c75760003660031901126101c75760005460ff8160081c161590818092610613575b80156105fc575b156101c75760ff198116600117600055816105ea575b506104ab611818565b60ff60005460081c16156101c7576000906104c5336117cf565b6104cd611818565b81805260656020908152604080842033855290915282205460ff16156105af575b6000805160206118d1833981519152825260656020908152604080842033855290915282205460ff1615610564575b610526336117cf565b61052d5780f35b61ff001981541681557f7f26b83ff96e1f2b6a682f133852f6798a09c465da95921460cefb3847402498602060405160018152a180f35b6000805160206118d18339815191528083526065602090815260408085203380875292528420805460ff191660011790559081906000805160206118b18339815191528580a461051d565b8180526065602090815260408084203380865292528320805460ff1916600117905580836000805160206118b18339815191528180a46104ee565b61ffff191661010117600055816104a2565b50303b15801561048c5750600160ff82161461048c565b50600160ff821610610485565b346101c75761062e3661128d565b906106376117bb565b6001600160a01b0316600081815261012d602052604090206002015461065c90611328565b156101c7578151156101c7578060005261012d6020526002604060002001918051926001600160401b0384116107c5576106968154611328565b601f8111610788575b50602093601f811160011461071557806106e0916000805160206118f1833981519152959660009161070a575b508160011b916000199060031b1c19161790565b90555b8260005261012d602052600160406000200190610705604051928392836114b4565b0390a2005b9050840151876106cc565b601f19811682600052856000209060005b8181106107705750906000805160206118f18339815191529596836001949310610757575b5050811b0190556106e3565b85015160001960f88460031b161c19169055868061074b565b85880151835560209788019760019093019201610726565b6107b590826000526020600020601f870160051c810191602088106107bb575b601f0160051c019061141a565b8461069f565b90915081906107a8565b634e487b7160e01b600052604160045260246000fd5b346101c7576107e93661128d565b906107f26117bb565b6001600160a01b031680156101c7578151156101c7578060005261012d602052610823600260406000200154611328565b6101c7578060005261012d6020526002604060002001918051926001600160401b0384116107c5576108558154611328565b601f81116108f7575b50602093601f811160011461089e57806106e0916000805160206118f1833981519152959660009161070a57508160011b916000199060031b1c19161790565b601f19811682600052856000209060005b8181106108df5750906000805160206118f18339815191529596836001949310610757575050811b0190556106e3565b858801518355602097880197600190930192016108af565b61092390826000526020600020601f870160051c810191602088106107bb57601f0160051c019061141a565b8461085e565b346101c75760003660031901126101c7576109426117bb565b609780546001600160a01b031981169091556000906001600160a01b03167f8be0079c531659141344cd1fd0a4f28419497f9722a3daafe3b4186f6b6457e08280a3005b346101c75760403660031901126101c75761099f611204565b602435906001600160401b0382116101c757366023830112156101c7578160040135906001600160401b0382116107c5578160051b9260208401926109e7604051948561121a565b83526020830160248195830101913683116101c757602401905b828210610afe57505050610a136117bb565b60018060a01b0316918260005261012d602052610a37600260406000200154611328565b156101c7578151156101c7578260005261012d60205260016040600020018251916001600160401b0383116107c557600160401b83116107c5578154838355808410610ae0575b5090600052602060002060005b838110610acc57857ff8070e30d30f820055a9f779f9d7b2b8268ca86522349ccc7efae2270e15388d61070587604051918291602083526020830190611480565b600190602084519401938184015501610a8b565b610af89083600052846020600020918201910161141a565b85610a7e565b8135815260209182019101610a01565b346101c75760003660031901126101c7577f00000000000000000000000000000000000000000000000000000000000000006001600160a01b031630036101c75760206040516000805160206119118339815191528152f35b60403660031901126101c757610b7b611204565b6024356001600160401b0381116101c757366023820112156101c757610bab903690602481600401359101611256565b7f00000000000000000000000000000000000000000000000000000000000000006001600160a01b03163081146101c757600080516020611911833981519152546001600160a01b0316036101c757610c026117bb565b7f4910fdfa16fed3260ed0e7147f7cc6da11a60208b5b9406d12a635614ffd91435460ff1615610c36575061028590611828565b6040516352d1902d60e01b81526001600160a01b03831690602081600481855afa60009181610d54575b50610c6a57600080fd5b600080516020611911833981519152036101c757610c8783611828565b7fbc7cd75a20ee27fd9adebab32041f755214dbc6bffa90cc0225b39da2e5c2d3b600080a2805115801590610d4c575b610cbd57005b6102859160008060405193610cd360608661121a565b602785527f416464726573733a206c6f772d6c6576656c2064656c65676174652063616c6c6020860152660819985a5b195960ca1b6040860152602081519101845af43d15610d44573d91610d278361123b565b92610d35604051948561121a565b83523d6000602085013e611885565b606091611885565b506001610cb7565b9091506020813d602011610d80575b81610d706020938361121a565b810103126101c757519085610c60565b3d9150610d63565b346101c75760203660031901126101c757610da1611204565b610da96117bb565b6001600160a01b0316600081815261012d6020526040902060020154610dce90611328565b156101c7578060005261012d602052610e0f60036040600020600081556001810180546000825580610e59575b5050610e0960028201611431565b01611431565b6000805160206118f183398151915260606020610705604051610e32838261121a565b60008152600036813760405193849360408552600060408601528401526060830190611480565b610e6e9160005260206000209081019061141a565b8480610dfb565b346101c75760203660031901126101c757610e8e611204565b7f00000000000000000000000000000000000000000000000000000000000000006001600160a01b03163081146101c757600080516020611911833981519152546001600160a01b0316036101c757610ee56117bb565b602090604051610ef5838261121a565b6000815282810192601f1981013685377f4910fdfa16fed3260ed0e7147f7cc6da11a60208b5b9406d12a635614ffd91435460ff1615610f3b5750506102859150611828565b6040516352d1902d60e01b8152919290916001600160a01b038216908381600481855afa60009181611058575b50610f7257600080fd5b600080516020611911833981519152036101c757610f8f82611828565b7fbc7cd75a20ee27fd9adebab32041f755214dbc6bffa90cc0225b39da2e5c2d3b600080a2825115801590611050575b610fc557005b6000806102859560405195610fdb60608861121a565b602787527f416464726573733a206c6f772d6c6576656c2064656c65676174652063616c6c86880152660819985a5b195960ca1b60408801525190845af4903d15611047573d61102a8161123b565b90611038604051928361121a565b8152600081943d92013e611885565b60609250611885565b506000610fbf565b9091508481813d8311611080575b611070818361121a565b810103126101c757519087610f68565b503d611066565b346101c75760403660031901126101c7576110a06111ee565b336001600160a01b038216036101c75761028590600435611735565b346101c75760403660031901126101c7576004356110d86111ee565b906110e56102b382611406565b806000526065602052604060002060018060a01b03831660005260205260ff604060002054161561111257005b60008181526065602090815260408083206001600160a01b0395909516808452949091528120805460ff19166001179055339291906000805160206118b18339815191529080a4005b346101c75760203660031901126101c7576020611179600435611406565b604051908152f35b346101c75760203660031901126101c7576004359063ffffffff60e01b82168092036101c75760209163cfb14f1760e01b81149081156111c3575b5015158152f35b637965db0b60e01b8114915081156111dd575b50836111bc565b6301ffc9a760e01b149050836111d6565b602435906001600160a01b03821682036101c757565b600435906001600160a01b03821682036101c757565b90601f801991011681019081106001600160401b038211176107c557604052565b6001600160401b0381116107c557601f01601f191660200190565b9291926112628261123b565b91611270604051938461121a565b8294818452818301116101c7578281602093846000960137010152565b9060406003198301126101c7576004356001600160a01b03811681036101c75791602435906001600160401b0382116101c757806023830112156101c7578160246112dd93600401359101611256565b90565b60005b8381106112f35750506000910152565b81810151838201526020016112e3565b9060209161131c815180928185528580860191016112e0565b601f01601f1916010190565b90600182811c92168015611358575b602083101461134257565b634e487b7160e01b600052602260045260246000fd5b91607f1691611337565b906040519182600082549261137684611328565b80845293600181169081156113e4575060011461139d575b5061139b9250038361121a565b565b90506000929192526020600020906000915b8183106113c857505090602061139b928201013861138e565b60209193508060019154838589010152019101909184926113af565b90506020925061139b94915060ff191682840152151560051b8201013861138e565b600052606560205260016040600020015490565b818110611425575050565b6000815560010161141a565b61143b8154611328565b9081611445575050565b81601f60009311600114611457575055565b8183526020832061147391601f0160051c81019060010161141a565b8082528160208120915555565b906020808351928381520192019060005b81811061149e5750505090565b8251845260209384019390920191600101611491565b906114c790604083526040830190611303565b9060208183039101526020825491828152019160005260206000209060005b8181106114f35750505090565b82548452602090930192600192830192016114e6565b600081815260656020908152604080832033845290915290205460ff161561152e5750565b3360009161153c602a61123b565b9261154a604051948561121a565b602a8452611558602a61123b565b602085019390601f19013685378451156116df57603084538451600110156116df576078602186015360295b600181116116f357506116725750906000906115a0604261123b565b916115ae604051938461121a565b604283526115bc604261123b565b602084019490601f19013686378351156116df57603085538351600110156116df576078602185015360415b600181116116755750611672576101c7611638601187603788886116618960405197889676020b1b1b2b9b9a1b7b73a3937b61d1030b1b1b7bab73a1604d1b6020890152518092878901906112e0565b8501917001034b99036b4b9b9b4b733903937b6329607d1b8584015251809360488401906112e0565b0101030190601f198201815261121a565b80fd5b90600f811660108110156116cb576f181899199a1a9b1b9c1cb0b131b232b360811b901a6116a3838761185e565b5360041c9080156116b757600019016115e8565b634e487b7160e01b83526011600452602483fd5b634e487b7160e01b84526032600452602484fd5b634e487b7160e01b82526032600452602482fd5b90600f811660108110156116cb576f181899199a1a9b1b9c1cb0b131b232b360811b901a611721838861185e565b5360041c9080156116b75760001901611584565b806000526065602052604060002060018060a01b03831660005260205260ff60406000205416611763575050565b60008181526065602090815260408083206001600160a01b0395909516808452949091528120805460ff19169055339291907ff6391f5c32d9c69d2a47ea670b442974b53935d1edc7fd64eb21e047a839171b9080a4565b6097546001600160a01b031633036101c757565b609780546001600160a01b039283166001600160a01b0319821681179092559091167f8be0079c531659141344cd1fd0a4f28419497f9722a3daafe3b4186f6b6457e0600080a3565b60ff60005460081c16156101c757565b803b156101c75760008051602061191183398151915280546001600160a01b0319166001600160a01b0392909216919091179055565b90815181101561186f570160200190565b634e487b7160e01b600052603260045260246000fd5b919250156118a157815115611898575090565b3b156101c75790565b5080519081156101c757602001fdfe2f8788117e7eff1d82e926ec794901d17c78024a50270940304540a733656f0dbb28eb1a0cfabcecf96003fab466159bc2e051e49d79baf049890044e90724402fdffd903f33841803fb89d7e0f9674ca63fc2617667f356c30ca4cd01191371360894a13ba1a3210667c828492db98dca3e2076cc3735a920a3ca505d382bbca26469706673582212203bef8065d5817dbc953387ba7923c11ee307333bae29c14d5c85250809923c8e64736f6c634300081d0033",
  "linkReferences": {},
  "deployedLinkReferences": {}
}