{
  "_format": "hh-sol-artifact-1",
  "contractName": "FundManager",
  "sourceName": "src/core/FundManager.sol",
  "abi": [
    {
      "anonymous": false,
      "inputs": [
        {
          "indexed": false,
          "internalType": "address",
          "name": "previousAdmin",
          "type": "address"
        },
        {
          "indexed": false,
          "internalType": "address",
          "name": "newAdmin",
          "type": "address"
        }
      ],
      "name": "AdminChanged",
      "type": "event"
    },
    {
      "anonymous": false,
      "inputs": [
        {
          "indexed": true,
          "internalType": "address",
          "name": "beacon",
          "type": "address"
        }
      ],
      "name": "BeaconUpgraded",
      "type": "event"
    },
    {
      "anonymous": false,
      "inputs": [
        {
          "indexed": false,
          "internalType": "uint256",
          "name": "newCommissionPercentage",
          "type": "uint256"
        }
      ],
      "name": "CommissionPercentageUpdated",
      "type": "event"
    },
    {
      "anonymous": false,
      "inputs": [
        {
          "indexed": true,
          "internalType": "uint256",
          "name": "tokenId",
          "type": "uint256"
        },
        {
          "indexed": true,
          "internalType": "address",
          "name": "owner",
          "type": "address"
        },
        {
          "indexed": true,
          "internalType": "address",
          "name": "validator",
          "type": "address"
        }
      ],
      "name": "DeedMinted",
      "type": "event"
    },
    {
      "anonymous": false,
      "inputs": [
        {
          "indexed": true,
          "internalType": "address",
          "name": "newDeedNFT",
          "type": "address"
        }
      ],
      "name": "DeedNFTUpdated",
      "type": "event"
    },
    {
      "anonymous": false,
      "inputs": [
        {
          "indexed": true,
          "internalType": "address",
          "name": "newFeeReceiver",
          "type": "address"
        }
      ],
      "name": "FeeReceiverUpdated",
      "type": "event"
    },
    {
      "anonymous": false,
      "inputs": [
        {
          "indexed": false,
          "internalType": "uint8",
          "name": "version",
          "type": "uint8"
        }
      ],
      "name": "Initialized",
      "type": "event"
    },
    {
      "anonymous": false,
      "inputs": [
        {
          "indexed": true,
          "internalType": "bytes32",
          "name": "role",
          "type": "bytes32"
        },
        {
          "indexed": true,
          "internalType": "bytes32",
          "name": "previousAdminRole",
          "type": "bytes32"
        },
        {
          "indexed": true,
          "internalType": "bytes32",
          "name": "newAdminRole",
          "type": "bytes32"
        }
      ],
      "name": "RoleAdminChanged",
      "type": "event"
    },
    {
      "anonymous": false,
      "inputs": [
        {
          "indexed": true,
          "internalType": "bytes32",
          "name": "role",
          "type": "bytes32"
        },
        {
          "indexed": true,
          "internalType": "address",
          "name": "account",
          "type": "address"
        },
        {
          "indexed": true,
          "internalType": "address",
          "name": "sender",
          "type": "address"
        }
      ],
      "name": "RoleGranted",
      "type": "event"
    },
    {
      "anonymous": false,
      "inputs": [
        {
          "indexed": true,
          "internalType": "bytes32",
          "name": "role",
          "type": "bytes32"
        },
        {
          "indexed": true,
          "internalType": "address",
          "name": "account",
          "type": "address"
        },
        {
          "indexed": true,
          "internalType": "address",
          "name": "sender",
          "type": "address"
        }
      ],
      "name": "RoleRevoked",
      "type": "event"
    },
    {
      "anonymous": false,
      "inputs": [
        {
          "indexed": true,
          "internalType": "address",
          "name": "validator",
          "type": "address"
        },
        {
          "indexed": true,
          "internalType": "address",
          "name": "token",
          "type": "address"
        },
        {
          "indexed": false,
          "internalType": "uint256",
          "name": "amount",
          "type": "uint256"
        },
        {
          "indexed": false,
          "internalType": "uint256",
          "name": "commission",
          "type": "uint256"
        }
      ],
      "name": "ServiceFeeCollected",
      "type": "event"
    },
    {
      "anonymous": false,
      "inputs": [
        {
          "indexed": true,
          "internalType": "address",
          "name": "implementation",
          "type": "address"
        }
      ],
      "name": "Upgraded",
      "type": "event"
    },
    {
      "anonymous": false,
      "inputs": [
        {
          "indexed": true,
          "internalType": "address",
          "name": "validator",
          "type": "address"
        },
        {
          "indexed": true,
          "internalType": "address",
          "name": "token",
          "type": "address"
        },
        {
          "indexed": false,
          "internalType": "uint256",
          "name": "amount",
          "type": "uint256"
        },
        {
          "indexed": true,
          "internalType": "address",
          "name": "recipient",
          "type": "address"
        }
      ],
      "name": "ValidatorFeesWithdrawn",
      "type": "event"
    },
    {
      "anonymous": false,
      "inputs": [
        {
          "indexed": true,
          "internalType": "address",
          "name": "newValidatorRegistry",
          "type": "address"
        }
      ],
      "name": "ValidatorRegistryUpdated",
      "type": "event"
    },
    {
      "inputs": [],
      "name": "ADMIN_ROLE",
      "outputs": [
        {
          "internalType": "bytes32",
          "name": "",
          "type": "bytes32"
        }
      ],
      "stateMutability": "view",
      "type": "function"
    },
    {
      "inputs": [],
      "name": "DEFAULT_ADMIN_ROLE",
      "outputs": [
        {
          "internalType": "bytes32",
          "name": "",
          "type": "bytes32"
        }
      ],
      "stateMutability": "view",
      "type": "function"
    },
    {
      "inputs": [],
      "name": "FEE_MANAGER_ROLE",
      "outputs": [
        {
          "internalType": "bytes32",
          "name": "",
          "type": "bytes32"
        }
      ],
      "stateMutability": "view",
      "type": "function"
    },
    {
      "inputs": [],
      "name": "MINTER_ROLE",
      "outputs": [
        {
          "internalType": "bytes32",
          "name": "",
          "type": "bytes32"
        }
      ],
      "stateMutability": "view",
      "type": "function"
    },
    {
      "inputs": [],
      "name": "commissionPercentage",
      "outputs": [
        {
          "internalType": "uint256",
          "name": "",
          "type": "uint256"
        }
      ],
      "stateMutability": "view",
      "type": "function"
    },
    {
      "inputs": [],
      "name": "deedNFT",
      "outputs": [
        {
          "internalType": "address",
          "name": "",
          "type": "address"
        }
      ],
      "stateMutability": "view",
      "type": "function"
    },
    {
      "inputs": [],
      "name": "deedNFTContract",
      "outputs": [
        {
          "internalType": "address",
          "name": "",
          "type": "address"
        }
      ],
      "stateMutability": "view",
      "type": "function"
    },
    {
      "inputs": [],
      "name": "feeReceiver",
      "outputs": [
        {
          "internalType": "address",
          "name": "",
          "type": "address"
        }
      ],
      "stateMutability": "view",
      "type": "function"
    },
    {
      "inputs": [
        {
          "internalType": "uint256",
          "name": "amount",
          "type": "uint256"
        }
      ],
      "name": "formatFee",
      "outputs": [
        {
          "internalType": "string",
          "name": "",
          "type": "string"
        }
      ],
      "stateMutability": "pure",
      "type": "function"
    },
    {
      "inputs": [
        {
          "internalType": "address",
          "name": "validatorContract",
          "type": "address"
        },
        {
          "internalType": "address",
          "name": "token",
          "type": "address"
        }
      ],
      "name": "getCommissionBalance",
      "outputs": [
        {
          "internalType": "uint256",
          "name": "",
          "type": "uint256"
        }
      ],
      "stateMutability": "view",
      "type": "function"
    },
    {
      "inputs": [],
      "name": "getCommissionPercentage",
      "outputs": [
        {
          "internalType": "uint256",
          "name": "",
          "type": "uint256"
        }
      ],
      "stateMutability": "view",
      "type": "function"
    },
    {
      "inputs": [
        {
          "internalType": "bytes32",
          "name": "role",
          "type": "bytes32"
        }
      ],
      "name": "getRoleAdmin",
      "outputs": [
        {
          "internalType": "bytes32",
          "name": "",
          "type": "bytes32"
        }
      ],
      "stateMutability": "view",
      "type": "function"
    },
    {
      "inputs": [
        {
          "internalType": "bytes32",
          "name": "role",
          "type": "bytes32"
        },
        {
          "internalType": "address",
          "name": "account",
          "type": "address"
        }
      ],
      "name": "grantRole",
      "outputs": [],
      "stateMutability": "nonpayable",
      "type": "function"
    },
    {
      "inputs": [
        {
          "internalType": "bytes32",
          "name": "role",
          "type": "bytes32"
        },
        {
          "internalType": "address",
          "name": "account",
          "type": "address"
        }
      ],
      "name": "hasRole",
      "outputs": [
        {
          "internalType": "bool",
          "name": "",
          "type": "bool"
        }
      ],
      "stateMutability": "view",
      "type": "function"
    },
    {
      "inputs": [
        {
          "internalType": "address",
          "name": "_deedNFT",
          "type": "address"
        },
        {
          "internalType": "address",
          "name": "_validatorRegistry",
          "type": "address"
        },
        {
          "internalType": "uint256",
          "name": "initialCommissionPercentage",
          "type": "uint256"
        },
        {
          "internalType": "address",
          "name": "_feeReceiver",
          "type": "address"
        }
      ],
      "name": "initialize",
      "outputs": [],
      "stateMutability": "nonpayable",
      "type": "function"
    },
    {
      "inputs": [
        {
          "components": [
            {
              "internalType": "enum IDeedNFT.AssetType",
              "name": "assetType",
              "type": "uint8"
            },
            {
              "internalType": "string",
              "name": "ipfsDetailsHash",
              "type": "string"
            },
            {
              "internalType": "string",
              "name": "definition",
              "type": "string"
            },
            {
              "internalType": "string",
              "name": "configuration",
              "type": "string"
            },
            {
              "internalType": "address",
              "name": "validatorContract",
              "type": "address"
            },
            {
              "internalType": "address",
              "name": "token",
              "type": "address"
            }
          ],
          "internalType": "struct IFundManager.DeedMintData[]",
          "name": "deeds",
          "type": "tuple[]"
        }
      ],
      "name": "mintBatchDeedNFT",
      "outputs": [
        {
          "internalType": "uint256[]",
          "name": "tokenIds",
          "type": "uint256[]"
        }
      ],
      "stateMutability": "nonpayable",
      "type": "function"
    },
    {
      "inputs": [
        {
          "internalType": "address",
          "name": "owner",
          "type": "address"
        },
        {
          "internalType": "enum IDeedNFT.AssetType",
          "name": "assetType",
          "type": "uint8"
        },
        {
          "internalType": "string",
          "name": "ipfsDetailsHash",
          "type": "string"
        },
        {
          "internalType": "string",
          "name": "definition",
          "type": "string"
        },
        {
          "internalType": "string",
          "name": "configuration",
          "type": "string"
        },
        {
          "internalType": "address",
          "name": "validatorAddress",
          "type": "address"
        },
        {
          "internalType": "address",
          "name": "token",
          "type": "address"
        }
      ],
      "name": "mintDeedNFT",
      "outputs": [
        {
          "internalType": "uint256",
          "name": "",
          "type": "uint256"
        }
      ],
      "stateMutability": "nonpayable",
      "type": "function"
    },
    {
      "inputs": [],
      "name": "proxiableUUID",
      "outputs": [
        {
          "internalType": "bytes32",
          "name": "",
          "type": "bytes32"
        }
      ],
      "stateMutability": "view",
      "type": "function"
    },
    {
      "inputs": [
        {
          "internalType": "bytes32",
          "name": "role",
          "type": "bytes32"
        },
        {
          "internalType": "address",
          "name": "account",
          "type": "address"
        }
      ],
      "name": "renounceRole",
      "outputs": [],
      "stateMutability": "nonpayable",
      "type": "function"
    },
    {
      "inputs": [
        {
          "internalType": "bytes32",
          "name": "role",
          "type": "bytes32"
        },
        {
          "internalType": "address",
          "name": "account",
          "type": "address"
        }
      ],
      "name": "revokeRole",
      "outputs": [],
      "stateMutability": "nonpayable",
      "type": "function"
    },
    {
      "inputs": [
        {
          "internalType": "uint256",
          "name": "newCommissionPercentage",
          "type": "uint256"
        }
      ],
      "name": "setCommissionPercentage",
      "outputs": [],
      "stateMutability": "nonpayable",
      "type": "function"
    },
    {
      "inputs": [
        {
          "internalType": "address",
          "name": "_deedNFT",
          "type": "address"
        }
      ],
      "name": "setDeedNFT",
      "outputs": [],
      "stateMutability": "nonpayable",
      "type": "function"
    },
    {
      "inputs": [
        {
          "internalType": "address",
          "name": "_feeReceiver",
          "type": "address"
        }
      ],
      "name": "setFeeReceiver",
      "outputs": [],
      "stateMutability": "nonpayable",
      "type": "function"
    },
    {
      "inputs": [
        {
          "internalType": "address",
          "name": "_validatorRegistry",
          "type": "address"
        }
      ],
      "name": "setValidatorRegistry",
      "outputs": [],
      "stateMutability": "nonpayable",
      "type": "function"
    },
    {
      "inputs": [
        {
          "internalType": "bytes4",
          "name": "interfaceId",
          "type": "bytes4"
        }
      ],
      "name": "supportsInterface",
      "outputs": [
        {
          "internalType": "bool",
          "name": "",
          "type": "bool"
        }
      ],
      "stateMutability": "view",
      "type": "function"
    },
    {
      "inputs": [
        {
          "internalType": "address",
          "name": "newImplementation",
          "type": "address"
        }
      ],
      "name": "upgradeTo",
      "outputs": [],
      "stateMutability": "nonpayable",
      "type": "function"
    },
    {
      "inputs": [
        {
          "internalType": "address",
          "name": "newImplementation",
          "type": "address"
        },
        {
          "internalType": "bytes",
          "name": "data",
          "type": "bytes"
        }
      ],
      "name": "upgradeToAndCall",
      "outputs": [],
      "stateMutability": "payable",
      "type": "function"
    },
    {
      "inputs": [],
      "name": "validatorRegistry",
      "outputs": [
        {
          "internalType": "address",
          "name": "",
          "type": "address"
        }
      ],
      "stateMutability": "view",
      "type": "function"
    },
    {
      "inputs": [
        {
          "internalType": "address",
          "name": "validatorContract",
          "type": "address"
        },
        {
          "internalType": "address",
          "name": "token",
          "type": "address"
        }
      ],
      "name": "withdrawValidatorFees",
      "outputs": [],
      "stateMutability": "nonpayable",
      "type": "function"
    }
  ],
  "bytecode": "0x60a08060405234603057306080526120cd90816100368239608051818181610e9901528181610f2501526111b40152f35b600080fdfe608080604052600436101561001357600080fd5b60003560e01c90816301ffc9a7146116c35750806302692d391461165957806305db2f41146116305780630ac5b09e146115de5780630e7a57e414611474578063248a9ca31461144e5780632f2ff15d146113af57806336568abe1461137a5780633659cfe61461119957806339b87c8f1461114257806341aa82ac146103f457806349773050146110d85780634f1ef28614610edf57806352d1902d14610e86578063674ef97714610a4b57806375b238fc14610a2257806391d14854146109d5578063a217fddf146109b9578063a5addef51461078d578063a5dbd8141461038e578063b3f0067414610763578063be2030941461041e578063c7f01cac146103f4578063d5391393146103cb578063d547741f14610393578063d575fe641461038e578063efdcd97414610324578063f376ebbb146102fa5763fab027bc1461015e57600080fd5b346102f55760203660031901126102f55760006004358072184f03e93ff9f4daa797ed6e38ed64bf6a1f0160401b8110156102d2575b600a906904ee2d6d415b85acef8160201b8110156102b6575b662386f26fc100008110156102a2575b6305f5e100811015610291575b612710811015610282575b6064811015610274575b1015610269575b600a602160018401936101f885611777565b946102066040519687611756565b808652610215601f1991611777565b013660208701378401015b60001901916f181899199a1a9b1b9c1cb0b131b232b360811b8282061a83530490811561024f57600a90610220565b6040516020808252819061026590820186611840565b0390f35b6001909101906101e6565b6064600291049301926101df565b612710600491049301926101d5565b6305f5e100600891049301926101ca565b662386f26fc10000601091049301926101bd565b602093909301926904ee2d6d415b85acef8160201b90046101ad565b506040915072184f03e93ff9f4daa797ed6e38ed64bf6a1f0160401b8104610194565b600080fd5b346102f55760003660031901126102f55761012e546040516001600160a01b039091168152602090f35b346102f55760203660031901126102f55761033d611716565b6103456118bb565b6001600160a01b031680156102f55761013080546001600160a01b031916821790557f27aae5db36d94179909d019ae0b1ac7c16d96d953148f63c0f6a0a9c8ead79ee600080a2005b6117fe565b346102f55760403660031901126102f5576103c96004356103b261172c565b906103c46103bf8261187d565b6119e6565b611a76565b005b346102f55760003660031901126102f55760206040516000805160206120588339815191528152f35b346102f55760003660031901126102f55761012d546040516001600160a01b039091168152602090f35b346102f55760803660031901126102f557610437611716565b61043f61172c565b6064356001600160a01b03811690604435908290036102f5576000549260ff8460081c161593848095610756575b801561073f575b156102f55760ff1981166001176000558461072d575b50610493611d14565b60ff60005460081c16156102f55760009460016097556104b1611d14565b6001600160a01b0316908115610729576001600160a01b03169081156107295783156107295761271083116107295760018060a01b031961012d54161761012d5560018060a01b031961012e54161761012e5561012f5560018060a01b03196101305416176101305581805260656020526040822060018060a01b033316835260205260ff604083205416156106ee575b600080516020612078833981519152825260656020908152604080842033855290915282205460ff16156106a3575b600080516020612058833981519152825260656020908152604080842033855290915282205460ff1615610658575b600080516020612018833981519152825260656020908152604080842033855290915282205460ff161561060d575b6105d65780f35b61ff001981541681557f7f26b83ff96e1f2b6a682f133852f6798a09c465da95921460cefb3847402498602060405160018152a180f35b6000805160206120188339815191528083526065602090815260408085203380875292528420805460ff19166001179055908190600080516020611ff88339815191528580a46105cf565b6000805160206120588339815191528083526065602090815260408085203380875292528420805460ff19166001179055908190600080516020611ff88339815191528580a46105a0565b6000805160206120788339815191528083526065602090815260408085203380875292528420805460ff19166001179055908190600080516020611ff88339815191528580a4610571565b8180526065602090815260408084203380865292528320805460ff191660011790558083600080516020611ff88339815191528180a4610542565b8580fd5b61ffff1916610101176000558561048a565b50303b1580156104745750600160ff821614610474565b50600160ff82161061046d565b346102f55760003660031901126102f557610130546040516001600160a01b039091168152602090f35b346102f55760e03660031901126102f5576107a6611716565b60243560048110156102f5576044356001600160401b0381116102f5576107d19036906004016117e0565b6064356001600160401b0381116102f5576107f09036906004016117e0565b6084356001600160401b0381116102f55761080f9036906004016117e0565b9060a4359260018060a01b038416948585036102f55760c435966001600160a01b0388168089036102f557610842611a23565b6001600160a01b038216156102f55787156102f55780156102f55761012e5460405163d04a68c760e01b8152600481018a905290602090829060249082906001600160a01b03165afa90811561095f5760009161099a575b50156102f55760405163b5af090f60e01b8152600481018290526020816024818c5afa90811561095f5760009161096b575b50156102f5576020906024604051809a81936312d1c0fb60e21b835260048301525afa96871561095f57600097610928575b5086156102f55761091661091b976020998833611afc565b611c0a565b6001609755604051908152f35b90966020823d602011610957575b8161094360209383611756565b8101031261095457505195886108fe565b80fd5b3d9150610936565b6040513d6000823e3d90fd5b61098d915060203d602011610993575b6109858183611756565b810190611865565b8a6108cc565b503d61097b565b6109b3915060203d602011610993576109858183611756565b8a61089a565b346102f55760003660031901126102f557602060405160008152f35b346102f55760403660031901126102f5576109ee61172c565b600435600052606560205260406000209060018060a01b0316600052602052602060ff604060002054166040519015158152f35b346102f55760003660031901126102f55760206040516000805160206120788339815191528152f35b346102f55760203660031901126102f5576004356001600160401b0381116102f557366023820112156102f5578060040135610a86816117c9565b91610a946040519384611756565b8183526024602084019260051b820101903682116102f55760248101925b828410610d795784610ac2611a23565b80519081156102f557610ad4826117c9565b91610ae26040519384611756565b808352610aee816117c9565b602084019290601f190136843760005b828110610b4f57838560016097556040519182916020830190602084525180915260408301919060005b818110610b36575050500390f35b8251845285945060209384019390920191600101610b28565b610b598183611891565b516080810180519192916001600160a01b031680156102f55760a0840180519091906001600160a01b0316156102f55761012e5460405163d04a68c760e01b81526004810192909252602090829060249082906001600160a01b03165afa90811561095f57600091610d5b575b50156102f5578151815160405163b5af090f60e01b81526001600160a01b0391821660048201529160209183916024918391165afa90811561095f57600091610d3d575b50156102f557815181516040516312d1c0fb60e21b81526001600160a01b0391821660048201529160209183916024918391165afa90811561095f57600091610d0c575b5080156102f55782519151610c70926001600160a01b03918216911633611afc565b8251926004841015610cf657602081015160408201516060909201518351600196610ca8946001600160a01b03909216939033611c0a565b610cb28389611891565b52610cbd8288611891565b5190838060a01b039051169033907f41d464473b0a27fe719ae988c3e704cf3609da897c7e7822809a9505e57cc0b5600080a401610afe565b634e487b7160e01b600052602160045260246000fd5b906020823d8211610d35575b81610d2560209383611756565b8101031261095457505189610c4e565b3d9150610d18565b610d55915060203d8111610993576109858183611756565b89610c0a565b610d73915060203d8111610993576109858183611756565b89610bc6565b83356001600160401b0381116102f55782019060c060231983360301126102f5576040519060c082018281106001600160401b03821117610e7057604052602483013560048110156102f557825260448301356001600160401b0381116102f557610dea90602436918601016117e0565b602083015260648301356001600160401b0381116102f557610e1290602436918601016117e0565b60408301526084830135916001600160401b0383116102f557610e6060c4602095610e448796602436918401016117e0565b6060850152610e5560a48201611742565b608085015201611742565b60a0820152815201930192610ab2565b634e487b7160e01b600052604160045260246000fd5b346102f55760003660031901126102f5577f00000000000000000000000000000000000000000000000000000000000000006001600160a01b031630036102f55760206040516000805160206120388339815191528152f35b60403660031901126102f557610ef3611716565b6024356001600160401b0381116102f557366023820112156102f557610f23903690602481600401359101611792565b7f00000000000000000000000000000000000000000000000000000000000000006001600160a01b03163081146102f557600080516020612038833981519152546001600160a01b0316036102f557610f7a611995565b7f4910fdfa16fed3260ed0e7147f7cc6da11a60208b5b9406d12a635614ffd91435460ff1615610fae57506103c990611daf565b6040516352d1902d60e01b81526001600160a01b03831690602081600481855afa600091816110a4575b50610fe257600080fd5b600080516020612038833981519152036102f557610fff83611daf565b7fbc7cd75a20ee27fd9adebab32041f755214dbc6bffa90cc0225b39da2e5c2d3b600080a280511580159061109c575b61103557005b6103c9916000806040519361104b606086611756565b602785527f416464726573733a206c6f772d6c6576656c2064656c65676174652063616c6c6020860152660819985a5b195960ca1b6040860152602081519101845af4611096611f9c565b91611fcc565b50600161102f565b9091506020813d6020116110d0575b816110c060209383611756565b810103126102f557519085610fd8565b3d91506110b3565b346102f55760203660031901126102f5576110f1611716565b6110f96118bb565b6001600160a01b031680156102f55761012e80546001600160a01b031916821790557ff31fdba56af159bea021b0e8046c6b783da9d8dbab59befaa791eec5c838b2fe600080a2005b346102f55760203660031901126102f55760043561115e6118bb565b61271081116102f5576020817f7e3665a83046ac3c4ec146cf309edab9d75086c48761909ce868f5c65743f4f19261012f55604051908152a1005b346102f55760203660031901126102f5576111b2611716565b7f00000000000000000000000000000000000000000000000000000000000000006001600160a01b03163081146102f557600080516020612038833981519152546001600160a01b0316036102f557611209611995565b6040519060206112198184611756565b60008352808301601f1982013682377f4910fdfa16fed3260ed0e7147f7cc6da11a60208b5b9406d12a635614ffd91435460ff161561125e5750506103c99150611daf565b6040516352d1902d60e01b81529192916001600160a01b038316908481600481855afa6000918161134b575b5061129457600080fd5b600080516020612038833981519152036102f5576112b183611daf565b7fbc7cd75a20ee27fd9adebab32041f755214dbc6bffa90cc0225b39da2e5c2d3b600080a2835115801590611343575b6112e757005b600080916103c9957f416464726573733a206c6f772d6c6576656c2064656c65676174652063616c6c6040519661131f606089611756565b60278852870152660819985a5b195960ca1b60408701525190845af4611096611f9c565b5060006112e1565b9091508581813d8311611373575b6113638183611756565b810103126102f55751908761128a565b503d611359565b346102f55760403660031901126102f55761139361172c565b336001600160a01b038216036102f5576103c990600435611a76565b346102f55760403660031901126102f5576004356113cb61172c565b906113d86103bf8261187d565b806000526065602052604060002060018060a01b03831660005260205260ff604060002054161561140557005b60008181526065602090815260408083206001600160a01b0395909516808452949091528120805460ff1916600117905533929190600080516020611ff88339815191529080a4005b346102f55760203660031901126102f557602061146c60043561187d565b604051908152f35b346102f55760403660031901126102f55761148d611716565b61149561172c565b9061149e611a23565b604051632474521560e21b815260008051602061207883398151915260048201523360248201526001600160a01b03821690602081604481855afa90811561095f576000916115bf575b508015611587575b156102f55780600052610131602052604060002060018060a01b0384166000526020526040600020549283156102f5576000828152610131602090815260408083206001600160a01b03909416808452939091528120559161155490849084611a34565b6040519283527f38e0f771df187fe8e459a00fc229cde4370d851acded32da09bb4b18140fb61e60203394a46001609755005b503360009081527f5f1aca56c1c1708dba13efb64655e6dc731d7b04ea1246b7f1a1a9a7ff776df0602052604090205460ff166114f0565b6115d8915060203d602011610993576109858183611756565b846114e8565b346102f55760403660031901126102f5576115f7611716565b6115ff61172c565b6001600160a01b03918216600090815261013160209081526040808320949093168252928352819020549051908152f35b346102f55760003660031901126102f55760206040516000805160206120188339815191528152f35b346102f55760203660031901126102f557611672611716565b61167a6118bb565b6001600160a01b031680156102f55761012d80546001600160a01b031916821790557fcdb31913b47856a52941f2169119f87b560c1f0a817282632272489c343b5749600080a2005b346102f55760203660031901126102f5576004359063ffffffff60e01b82168092036102f557602091637965db0b60e01b8114908115611705575b5015158152f35b6301ffc9a760e01b149050836116fe565b600435906001600160a01b03821682036102f557565b602435906001600160a01b03821682036102f557565b35906001600160a01b03821682036102f557565b90601f801991011681019081106001600160401b03821117610e7057604052565b6001600160401b038111610e7057601f01601f191660200190565b92919261179e82611777565b916117ac6040519384611756565b8294818452818301116102f5578281602093846000960137010152565b6001600160401b038111610e705760051b60200190565b9080601f830112156102f5578160206117fb93359101611792565b90565b346102f55760003660031901126102f557602061012f54604051908152f35b60005b8381106118305750506000910152565b8181015183820152602001611820565b906020916118598151809281855285808601910161181d565b601f01601f1916010190565b908160209103126102f5575180151581036102f55790565b600052606560205260016040600020015490565b80518210156118a55760209160051b010190565b634e487b7160e01b600052603260045260246000fd5b3360009081527f2c01dc0041dfb6d4238a91e5a638996136aed16f837d5beb45610732cf9bf4b0602052604090205460ff16156118f457565b6102f561190033611df6565b6011611919600080516020612078833981519152611ef1565b91603760405193849276020b1b1b2b9b9a1b7b73a3937b61d1030b1b1b7bab73a1604d1b6020850152611955815180926020868801910161181d565b83017001034b99036b4b9b9b4b733903937b6329607d1b8382015261198482518093602060488501910161181d565b0101030190601f1982018152611756565b3360009081527fffdfc1249c027f9191656349feb0761381bb32c9f557e01f419fd08754bf5a1b602052604090205460ff16156119ce57565b6102f56119da33611df6565b60116119196000611ef1565b600081815260656020908152604080832033845290915290205460ff1615611a0b5750565b6102f5906011611919611a1d33611df6565b92611ef1565b6002609754146102f5576002609755565b60405163a9059cbb60e01b60208201526001600160a01b039092166024830152604480830193909352918152611a7491611a6f606483611756565b611d24565b565b806000526065602052604060002060018060a01b03831660005260205260ff60406000205416611aa4575050565b60008181526065602090815260408083206001600160a01b0395909516808452949091528120805460ff19169055339291907ff6391f5c32d9c69d2a47ea670b442974b53935d1edc7fd64eb21e047a839171b9080a4565b92919061012f54808402908482041484151715611bf45761271090049081840392848411611bf4576040516323b872dd60e01b60208201526001600160a01b03968716602482015230604482015260648082018790528152951694611b6c90611b66608482611756565b86611d24565b60018060a01b031692836000526101316020526040600020856000526020526040600020918254938401809411611bf4577f3c0e1d1fe8d70e196af9a821f99dbf07a8d0d18201b3417ff525e500fd82653d936040935580611bd6575b82519182526020820152a3565b61013054611bef9082906001600160a01b031688611a34565b611bc9565b634e487b7160e01b600052601160045260246000fd5b61012d5460405163207b2bef60e21b81526001600160a01b039283166004808301829052919897909695939092169290841015610cf65787611c90819593611c7e602098611c6c6000968698602488015260c0604488015260c4870190611840565b85810360031901606487015290611840565b83810360031901608485015290611840565b6001600160a01b0390981660a482018190529703925af192831561095f57600093611ce0575b50827f41d464473b0a27fe719ae988c3e704cf3609da897c7e7822809a9505e57cc0b5600080a490565b90926020823d602011611d0c575b81611cfb60209383611756565b810103126109545750519138611cb6565b3d9150611cee565b60ff60005460081c16156102f557565b90611d7f9160018060a01b031660008060405193611d43604086611756565b602085527f5361666545524332303a206c6f772d6c6576656c2063616c6c206661696c6564602086015260208151910182855af1611096611f9c565b8051908115918215611d95575b5050156102f557565b611da89250602080918301019101611865565b3880611d8c565b803b156102f55760008051602061203883398151915280546001600160a01b0319166001600160a01b0392909216919091179055565b9081518110156118a5570160200190565b600090611e03602a611777565b91611e116040519384611756565b602a8352611e1f602a611777565b6020840190601f1901368237835115611edd5760309053825160011015611ec957607860218401535060009060295b60018111611e5f5750610954575090565b90600f81166010811015611eb5576f181899199a1a9b1b9c1cb0b131b232b360811b901a611e8d8386611de5565b5360041c908015611ea15760001901611e4e565b634e487b7160e01b83526011600452602483fd5b634e487b7160e01b84526032600452602484fd5b634e487b7160e01b81526032600452602490fd5b634e487b7160e01b82526032600452602482fd5b600090611efe6042611777565b91611f0c6040519384611756565b60428352611f1a6042611777565b6020840190601f1901368237835115611edd5760309053825160011015611ec957607860218401535060009060415b60018111611f5a5750610954575090565b90600f81166010811015611eb5576f181899199a1a9b1b9c1cb0b131b232b360811b901a611f888386611de5565b5360041c908015611ea15760001901611f49565b3d15611fc7573d90611fad82611777565b91611fbb6040519384611756565b82523d6000602084013e565b606090565b91925015611fe857815115611fdf575090565b3b156102f55790565b5080519081156102f557602001fdfe2f8788117e7eff1d82e926ec794901d17c78024a50270940304540a733656f0d6c0757dc3e6b28b2580c03fd9e96c274acf4f99d91fbec9b418fa1d70604ff1c360894a13ba1a3210667c828492db98dca3e2076cc3735a920a3ca505d382bbc9f2df0fed2c77648de5860a4cc508cd0818c85b8b8a1ab4ceeef8d981c8956a6a49807205ce4d355092ef5a8a18f56e8913cf4a201fbe287825b095693c21775a2646970667358221220d7aae37d4477a50b22d926d1d47f9e362a4d5bbff8e10d1d9f28e2f801c27e3d64736f6c634300081d0033",
  "linkReferences": {},
  "deployedLinkReferences": {}
}